:100000000C94FD0B0C94250C0C94250C0C94250CD5
:100010000C94250C0C94250C0C94250C0C94250C9C
:100020000C94250C0C94250C0C94B8200C942A21CB
:100030000C94250C0C94250C0C94250C0C94250C7C
:100040000C94250C0C94250C0C94250C0C94250C6C
:100050000C94250C0C94250C0C94250C0C94F10C90
:100060000C94250C0C94250C0C94250C0C94250C4C
:100070000C94250C0C94250C0C94250C0C94250C3C
:100080000C94250C0C94250C0C94250C0C94250C2C
:100090000C94250C0C94250C0C94250C0C94250C1C
:1000A0000C94250C0C94250C0C94250C762582259B
:1000B0008D25A92514341434CC25E72812334D336B
:1000C0009F33A333EB3340264226442648264D2651
:1000D000512653265F26582661266126462661262C
:1000E0004F26CE15D815E215EC15F61500160A1692
:1000F000B817B617BC17BC17D917B817E0171FFFEA
:100100001FFF1FFFDCFF0000FFC900000000000010
:1001100000000000000000000000000000000300DC
:100120000000000008000000080800000C1C00206F
:100130001C1C00701C3E00701C3E00701C1C00202B
:1001400008080020080800FF3FFF24002C4916ACD7
:10015000192E1F36FF2A03C0000000000008000807
:100160001000188019C0610062036229640F6620C4
:10017000660B270647FF2281C000800080008008B0
:10018000880080008081C063C70703FF69031F6088
:10019000E0010621601086212238C2232338C223C1
:1001A0000338E2270310E0270310800103410DC14B
:1001B00016420882BA823CC30A431344016448448D
:1001C00016841D27002CC731877A271F17FF2401AB
:1001D00000010067CC0100010067CC010001008034
:1001E00021802F8321832F8621862F2708A9678EC0
:1001F000FF2281C0808000800080188C0080808079
:1002000081C063670703270C2FFF139B1190000029
:100210008808084106420243004306240342450180
:10022000460487408764FF000070F80070FCFC7F84
:1002300006FC0F067E00E67FE0E671F87670FE763B
:10024000F0077EFF031EFF01DE8101C681E1F61982
:10025000ECF619ECF681EDF681EDF681ED86C1ED57
:10026000BEC1EDBE83E10080E1FF8FEDFF8FFD7722
:10027000140A7600135512740907D10EAF0C4E0FF5
:100280004C124C0B4C05AC032B164A07AA05080A66
:10029000A803870F861165170585138415A411A47B
:1002A0000F82298108FF3800000600000631006730
:1002B000310066310060030060022040FEFF7F00D5
:1002C0000000000000000000000000FFC0FF3FC071
:1002D000FF3F00FF3F00FF2100D0210950410C21CA
:1002E00010B043034407450E86C6C615280A904A37
:1002F000042B02352B15918FE7FF3460000060005E
:1003000000E6008C66008C06008C0600C0020440EB
:10031000FEFF7F000000000000000000000000FF62
:1003200003FFFF03FCFF00FCFF00FC2107D1410B92
:10033000210E512117B0431444104509C60286CB43
:10034000280D904A062B02902B15658FE9FFC107F7
:100350000000E0010000800000000000000000003C
:10036000000000000000000000000000C0010000CC
:10037000F0070000FC1F0000F00300030000000174
:100380000000C00100008001000080010000802604
:100390000F14872C8731882A88332A004E8A2A8AAC
:1003A000332B1F4CFFC1070000C0010000000000FC
:1003B0000000000001000000010000000100030037
:1003C00001C0010000808100008181000081810066
:1003D000000100000000000000000080000000801C
:1003E000000000800000821025002D650F251F4FA2
:1003F000870787188C0FFF010F001F0F800F0780E2
:100400008307C0C303C00701E00701F00181FF01BA
:1004100001FE0101FC00007C00003C0000FE0180A8
:100420001F00800FC0C003E0E003FFF003FCF801F1
:10043000FCFC00FE7E00FE3F00FF3F80FFFFFFFF51
:1004400021172E240D6D450A26114D87D749168A8E
:10045000C02B0EAD2E068D4E155001530B360620C7
:10046000FF910700F0000000000000000000000005
:10047000000000C003000001000024173925006FB0
:10048000FF051F00000300000100E00180010000E3
:1004900000000000001C00000000000000C001007F
:1004A0000000000000001C000700000000000080A9
:1004B00003000000000000000070000100000300C5
:1004C000000F000E3F0000FF03002117284512898E
:1004D000E049022B112A4C0B8C0F8C1390B7540A55
:1004E000371748FF2207E000800000381C0000009A
:1004F000000180A7F26429250F4B0607FF3000009A
:1005000000000000C00300FC0080F800F8F800F8CC
:10051000FF00F8FFFFFFFFFFFFFFFFFF00000000ED
:100520000000FF00FF7F00FE7F00FE7F00FE22171D
:100530008023158984322501258669260F492B01E0
:10054000002B16808D478D508FE8FF050000C000FE
:100550000080000080000E80071CDC01788E00F80F
:100560000700F00700F08F40F0DF6030D87810D03F
:100570003C18D01F0CD10F06D10703C18301C1C1A4
:10058000808361E00730F00710F80F00F80F00FCDF
:100590000F00FF1F822923002B490289274B092CBA
:1005A000006BCC268C104E07CF234F0CD108560180
:1005B000371624FF7A000000C3C3C3C3C3C38381BB
:1005C0000101000000000000000000000000000029
:1005D0001818F0200122002667044C238E4751058D
:1005E0009440774298479A235E22BF043F0738FF22
:1005F0000AFFFFFFFFFFFF00000000000000001CDB
:10060000FBFF9FE0FF9FE00010E00010E00010E023
:10061000FC11F0FC11F1FC11F1C011F1C031F1C07D
:1006200031F1F331F1F331F1F30101F00101F001A6
:1006300001F0FFFFFFFFFFFFFF440E241727A70D68
:10064000480B8AF18AF32B00218BE38DE14E0C9449
:10065000F195E2FF5400000000C00300000000001C
:10066000000000218421842184218421842184218B
:100670008421844182818183C107E10FF11FF99FA9
:10068000F88FF887F007E183C1C183618611880183
:100690008083C1C7E32107694802A9078A868A893E
:1006A0004B0D4F0BD006D009D5285703D8279A6198
:1006B0009A6E5D043D07903D08D05D2B9F439F4A95
:1006C000FF00FFFFFF000000000000C01F00070741
:1006D000000106C04306C04306FC0706FE1F0C1EB1
:1006E0003F0C1E3F1C1C1D3C1C0C27380860380AA0
:1006F0006038CA203C02001C06001EFCFF0FF8FFF9
:100700000301FE810300F8FFFFFF23006824174068
:1007100045034805490DAA164E058E2F5109560569
:10072000FF122B008000011000006106270141FF2D
:100730003300F0FF0000FF0700FC7F00F0FF03E044
:10074000FF1FE0FFF1C07F80C33F00C71F1EC71F10
:1007500033C71F83C31FFEE03F38E07F00F0FF0177
:10076000FC2100A0421144344612470C4A052B0AD2
:1007700033CC304E2CFF01070000010000000000C8
:100780000000E00000800000800000008001000008
:1007900018001C00001C8001000000000018000070
:1007A000000000000000000000000008C700080072
:1007B000001900001900381900FC1900FFFFFF2282
:1007C00017462803234809490E8A378D20530753BB
:1007D00011540EB51736006096299633FF8003003A
:1007E000E000000000000000000000008000008029
:1007F00000108000100000100001100001300031D6
:10080000300001300001300C01700001700007F869
:10081000800FF8817F8CC70006FF0020FE007F005C
:10082000FF7FE0FFFFFF41022317CD050C280044A6
:1008300089614F112F1761500735002995C1550F58
:10084000351722FFD5F08D14A1C881CFD9F1AF2083
:10085000005810F0F89C8E8783878E9CF8F000007B
:10086000FEFF0303030303070EFCF80000FEFF0373
:1008700003030303070EFCF80000FFFF0000000065
:10088000000000FFFF0000FEFF8383838383C7EE29
:100890007C380000F8FC0E07030303070EFCF80089
:1008A000003F7FE0C08080C0E07F3FFFFF0101018B
:1008B00001010101FFFF0000FFFF0C0C0C0C1C3EAE
:1008C00077E3C100007FFFC0C0C0C0C0E0703F1F21
:1008D00000001F3F70E0C0C0C0E0703F1F00007FFD
:1008E000FFC1C1C1C1C1E3773E1C00001F3F70E0E2
:1008F000C0C0C0E0703F1F000000000001FFFF010A
:100900000000001B1400FCFE02FAAAAA8A02FA4A9E
:100910004AFA02BAAAAAEA02BA22E23A82FEFC0023
:1009200000FFFF02FA2222FA02FA4A4AFA02FA4ABF
:100930004AB202FB8A8AF207FFFF0000030706069D
:100940000606060606060606060606060606060647
:100950000606060703001B1400FCFE02FA122642DC
:10096000FA02FAAAAA8A02FAC266C2FA02FEFEFED7
:10097000FEFC0000FFFF02FA82BFBE02FA8A8AFA7A
:1009800002FA4A4AFA02FA8B8BF307FFFF000003D0
:1009900007060606060606060606060606060606F6
:1009A00006060606060607030010108060F804FE1F
:1009B00002FF0101FF02FE04F86080FF00FF00FF5C
:1009C00000FF090DFF00FF00FF00FF10101F1111B5
:1009D00011F1111111111F111111F11111111F112B
:1009E000111111F11111111F11111111F1EFEF0F6F
:1009F000EFEFEFEFEFE0EFEFEFEFEFEFEF7B7B7875
:100A00007B7B7B7B7B7B7B7B7B7B7B037BEFEF1D24
:100A1000EBEF6FEFE7E0EFEF8FCFEFEFEE5B7B7C7D
:100A20007B7B537F7B5B7B7B7B7B71017B7F05FFCC
:100A30000B3DDF251D4BBD775B2FFD2E0516802955
:100A400000800840805001004880218011FE01395B
:100A5000050505010101010101010101FE7F808001
:100A60008080808080808080A0A098807FF4E7EFE5
:100A7000DF33F9FCFE7EBEBDB33F4FE7F73FCFF754
:100A8000FBFAF7C93EFFFFFF3FDFEEECD37CBBC7AD
:100A9000F7C7BB7C7F7CBBC7F7C7BB7C7F3CDBE772
:100AA000F7E7DB3CBF3CDBE7F7E7DB3CBF7E5BDF28
:100AB000FD5D77DDFFEFFD7FFFFEFDF9FF53AA41EE
:100AC0000D353F7F7FFFDFFF7FFF7F3DAFFE0101E1
:100AD000010101010101010505053901FE7F809831
:100AE000A0A0808080808080808080807F8C190C96
:100AF0008760535451D214E502E427A0C7A3008EA7
:100B0000151D110FC827D21320C0091332E0F8FCBD
:100B1000FEFE7F3F7FEFC6C6ECF8E00000071F3FF8
:100B20007F7E7C3C1E1F3F5CAED76A3418000000FD
:100B300000000000000000000010000000000000A5
:100B4000080000000000008000000000000000021B
:100B5000000000080000000000000000000000008D
:100B60000000000000002000000000040000000061
:100B70000200010000000000000000000000000072
:100B8000000000000000000002000000000303035A
:100B900006032218FE0379FDFD85B5F57103F9FD05
:100BA0003535FDF903F9FD0DFDF90DFDF90379FD6D
:100BB000D5D5DD5903FEFF017E7E1A1A1E0C707E0C
:100BC0001A1A7E7C027E60607E3E406E6E767620D3
:100BD0000C7E6A6A6E2C01FF01030202020303030A
:100BE00002020202020203020202020302020202E3
:100BF000020203020202020203012008FFFFC0C03A
:100C0000073FF8C0F83F0700FFFFC0C00000007FAB
:100C1000FFE0E0FF7F00FFFF1B1B1F0E2508E0F831
:100C20007E33337EF8E000FFFF3373FFCE00FCFF1E
:100C3000071E07FFFC007EFFC3C3FF7E00FFFF33DC
:100C400073FFCE1C083FFFE07CE0FF3F00FFFF008A
:100C5000FFFF1E3CFFFF007EFFC3D77600CEDFFB09
:100C6000731508FFFF1B1B0300FFFF00FFFF33731B
:100C7000FFCE00FFFFDBDBC31A0873F3C3FF7E0068
:100C80007FFFE0FF7F00FFFF0E1C0EFFFF00FFFF56
:100C90001B1B1F0E0D10150B2614A85020203E41C3
:100CA000027C80F1F2F4F4FEFDF5F5E0E0F0FCF3F7
:100CB000070804081020410204561007FBFDFDFD43
:100CC0007BFFFF0FF7F7F70FFFFF07EFF7F70FFFB8
:100CD000FF0FB7B7B7C3FFFF07EFF7FF6FB7B7B7A0
:100CE0000FFFF701F7FFFF07FFFFFF07FFFF01FF00
:100CF000FF6FB7B7B70FFFF701F7FFFF05FFFF0F54
:100D0000F7F7F70FFFFF07EFF7F70FFFFFFFFFFF03
:100D100001FEFCFDFDFDFEFFFFFEFDFDFDFEFFFFF4
:100D2000FCFFFFFFFCFFFFF1F6F6F6F2F9FFFCFF18
:100D3000FFFFFEFDFDFEFCFFFFFEFDFDFFFEFDFDD6
:100D4000FEFCFFFFFCFFFFFEFDFDFEFCFFFFFEFDC6
:100D5000FDFFFCFFFFFEFDFDFDFEFFFFFCFFFFFFB3
:100D6000FCFFFFFFFFFFFD804000000000000000CF
:100D70000000000000000000000000000080C040F3
:100D8000602030109848280C86F23A0F07030101C2
:100D900000000000000000000000C02090D0781883
:100DA0000800000000000000000000000000000833
:100DB0001838F070E0C000000000000000000000E3
:100DC000010103070F3AF2860C2848981030206082
:100DD00040C0800000000000000000000000000093
:100DE0000000000000000000000000000000000003
:100DF00000000080C06030188C4622134120084457
:100E000022910008044005107CC30000000000008F
:100E10000000000000000000001F204083473E0C3F
:100E200008A4A422428202022A824A22A2A4040C1A
:100E30001462C1F0793F0F000000000000000000C4
:100E4000000000000000C37C10054004080091224F
:100E5000440820411322468C183060C080000000F6
:100E6000000000000000000000000000000080E022
:100E7000F84C064310080411000042011806011046
:100E8000000400000000080000010F1C3060C0805A
:100E90000000000000000000000000FE0100000053
:100EA000070F1F111E0C0100010C1E111F0F8710D0
:100EB0004108C13F000000000000000000000000E9
:100EC00080C060301C0F010000080000000004001A
:100ED00010044910618200001104081043060C3808
:100EE000E080000000000000000000E078BE2B81E0
:100EF00010442108048108C01C02000041000000C9
:100F0000600001000000200000000200000080C11D
:100F10004163269434541C28582808510E583060D8
:100F2000800C1C3838303130313038181C8C40245B
:100F3000180F11A8082818B05838A86CC4860301E7
:100F4000010000000002000000000000000100009D
:100F500000400001220419608000210000010410FB
:100F600020030C38E000000000FC5F358B641000AB
:100F700026000E0100B80681000040890000000034
:100F800000030008000080C12420302C262341806B
:100F900040201010080C0404F8800000010000003C
:100FA00000010202024202A202422281510090404C
:100FB000A550F80C04080810102162C14422252213
:100FC00034283060C0800000000000008002000073
:100FD00004802000000200002002280002400004DB
:100FE00040118410810F38C0007F25121812103173
:100FF0004088010410048080E0F078389CDCDE9E9C
:101000003EFEFEFE7E7E7FF8FCF078FE70F81EFF4E
:101010007E7EFEFEFEFE7E7E7EFFFE7EFEFEFE7E6F
:10102000FE1EFEFEFE7E7E7EFEFFFE1EFFFEFE7F9D
:101030007EFFFEFEFEFE7E3E9EDEDF9E3E78F0FEE2
:1010400070F8FEF078FFFE7E7E7EFEFFFE7F7FFE64
:10105000FE7E1E7FFEFCF8316040C18411C0E210AC
:101060000C040406040908113E0000000000000002
:1010700000031F0806030101FFFFF0E0CFDFDDEDF5
:10108000C1FFFFE6DBDBEBC0FFFFC0FEFFFFC0DE02
:10109000DFDFE0FFFFE0DFDFDFE0FF7CB1C7F1FC77
:1010A000FFC0FFFFE0DBDBDBE8FFFFFEFFFFECDB69
:1010B000DBE6FFFFFFFFF0E7CF9F9F2F6770FFFF8B
:1010C000E0DFDFEFC0FFE0DBDBDBE8FFECDBDBE6F4
:1010D000FFFFE0DFFFFFFF0000000001020700004C
:1010E0000000000000000000000000000000000000
:1010F0000000000000000000073F7FFFFFC3D7EFA4
:10110000BFA7CFE7FFFFFFC399BDBDBDCFA7A7FB1B
:10111000DFAF83FF8FF7FF8BFFCFB7B7FFFFFFFF77
:10112000FFFFBF87F3C7F387BFFFCFA78FBFFF8F37
:10113000F7FFEF87EFFF8BFF87F78FFFFFFFFFFFC3
:10114000FFFFFFFFFFFFFFFFFFFFFFFFFFFFFFFFAF
:10115000FF7F7F3F3F1F03000000000000000000F2
:101160000000000000000000000C100000001C7ACD
:10117000BFBF7A1C000000E0388E830000000083AF
:101180008E38E000001C72AF8210BD721C0000504F
:1011900028C78060142A4080C728500000001C7EA9
:1011A000FFFF7E1C000000E0F8FEFFFFFFFFFFFFD7
:1011B000FEF8E0161800000000000000000000002B
:1011C000F01C2607261CF000000000040A110A0487
:1011D000040E1E3C1E0FF7F7E6DCBA7B777F3E0C51
:1011E00004000000000000000080E07FBFC77FBF58
:1011F0007FCFBF7FE0800000000000F01C260726A4
:101200001CF00000000000000000000000040C3E84
:101210007F777BBADCE6F7F70F1E3C1E0E04040A4C
:10122000110A040080E07FBFCF7FBF7FC7BF7FE090
:101230008000000000000000001118000000F01CF9
:101240002607261CF00000040AF10A047EFFC70FDF
:10125000FFFEFCFEFBF70F1E3C0EFF030080C37970
:10126000BECF7FBF7FC7BF7EE08000FF000050F889
:10127000D08000FC0269616902FC0080D0F8500057
:101280000103071EBDEB3E9CFE5BFD1E0703010034
:10129000001030985B0D873C0B1F400D1F3850101D
:1012A000000D100080F8FCFEFFFFFFFEFCF8800040
:1012B000FFFFFFFFFFFFFFFFFFFFFFFFFF1010100B
:1012C0002066F4DC98BCFFFEBC98D8FC6240200687
:1012D00003311B1F0F19B979191F376303060080EB
:1012E00042EEFCD898BCFEFFBD98D8FC6E202008CA
:1012F0000C46673F0F193979B91F1733664402004E
:101300002060F4F8B89CFEFE9CB8F8F4C0800000A1
:101310000402170F0B1D1D3D1D1B0F070800000ABF
:10132000080E172F7EFC7E3D190E000C1078F46617
:10133000EE7EEE66F6FCF87000000102041E344EEC
:101340001F374C182078F466EE7EEE66F6FCF870D7
:1013500000000103364F061F77074C38000070F875
:10136000FCF666EE7EEE66F47820184C371F4E349D
:101370001E040201000070F8FCF666EE7EEE66F4D4
:101380007800384C07771F064F3603010000F8D469
:10139000EC56FE7E56ECD4F8001020331E8CCC7E2A
:1013A000041E3320100A080F1C183E7C7C3E181CBB
:1013B0000FF038183E7C7C3E1838F0304810163C50
:1013C0003C3A1009060808FF69323214140808C0B4
:1013D000B08CC3BCF0C080101028284C4C96FF0184
:1013E000030F3DC3310D030808000000184C4E6A7E
:1013F000FFFF6A4E4C180000002D10FFFF017D45D5
:101400004545017D45457D017D0911217D01057D14
:101410000501457D45017D0911217D017D41417D0C
:10142000017D55554501FFFFFF80AEAAAABA80BED7
:101430009292BE809EB0B09E80BEAAAAA280889CD6
:101440008880BEA292AE80BEA0A0BE80A2BEA280B6
:1014500082BE8280FF2218FE0379FDFD85B5F571FD
:1014600003F9FD3535FDF903F9FD0DFDF90DFDF924
:101470000379FDD5D5DD5903FEFF013C7E7E7E7EDE
:10148000663C001E3E7060703E1E003C7E7E6A6AB6
:101490006E2C007E7E1A3E7E6C01FF01030202026A
:1014A000020202020302020202020203020202021A
:1014B000020203020202020302020203011C1000E4
:1014C0000000C0388E031C302040000000000000E7
:1014D0004020301C038E38C00000000000060301CD
:1014E00000010202040200000000000002040202E7
:1014F00001000103060000C0300884824182041804
:101500002040000000000000402018048241828436
:101510000830C007020100000000010204020000C0
:1015200000000000020402010000000001020700A8
:101530000000000000E01C033C4000000000000030
:10154000403C031CE0000000000000000000000020
:101550000E03010204020000000000000204020168
:10156000030E00000000000C10E01088D06103BEE4
:10157000FABA7FC3810F040394E0FFFFCF8300001A
:1015800000CA8C98B0F1E3FEFA3A7FC381AF476797
:10159000331B0F0703000000000080808081DBFE0A
:1015A000BA3A7FC38187C5F0B11B1F1F1BB1F3C6B9
:1015B0008481C37FBAFABE0361D08810E0000000C6
:1015C00083CFFFFFE09403040F81C37F3AFAFEE369
:1015D000F1B0988CCA0000000003070F1B33674767
:1015E000AF81C37F3ABAFEC3818080800084C6F396
:1015F000B11B1F1F1BB1F0C5870C10E01088D16311
:101600003EBEFA9A1C18000F040384F8E3F7CF8358
:10161000000000C02010A2467CFCF4B43830001F4B
:1016200048C7E1BE3C19ABF36A2410E01088D163CF
:101630003EBEFA9A1C18000F040384F8E3F7CF8328
:10164000000000C02010A2C67C7CF4B43830001F1B
:1016500048D7E1B82C1EBFF36020100088C4C4DE58
:10166000FAFDCFE770381E0781E0F81F07071FF863
:10167000E0800000808286BCFCF4B4B8B0800087B3
:10168000C5F0B11B1F1F1BB1F0C587CA8C98B0F203
:10169000E6FEFCF4743830AF4767331B0F070300D6
:1016A00000000000181C9AFABE3E63D18810E000CA
:1016B000000083CFF7E3F88403040F003038B4F45C
:1016C000FC7C46A21020C010246AF3AB193CBEE19A
:1016D000C7481F00181C9AFABE3E63D18810E0006C
:1016E000000083CFF7E3F88403040F003038B4F42C
:1016F0007C7CC6A21020C0102060F3BF1E2CB8E175
:10170000D7481F1E3870E7CFFDFADEC4C48800003A
:1017100080E0F81F07071FF8E081070080B0B8B429
:10172000F4FCBC8682800087C5F0B11B1F1F1BB173
:10173000F0C587303874F4FCFEE6F2B0988CCA002D
:1017400000000003070F1B336747AFF0F8F9F3FF02
:10175000FFFFFFFF3E3C381F0F87C3E3FFFFFFEF94
:10176000C78000383C3EFFFFFFFFFFF3F9F8F000B1
:1017700080C7EFFFFFFFE3C3870F1F0102040810BC
:10178000204080080B000202020100090400000151
:1017900002020000052400100105240101010424B7
:1017A0000206052406000107058103100040090414
:1017B0000100020A000000070502024000000705C0
:1017C00083024000000403090412010002EF020139
:1017D00040412336800001010203014172647569B2
:1017E0006E6F204C4C430041726475696E6F204CE3
:1017F000656F6E6172646F00F03411241FBECFEF0D
:10180000DAE0DEBFCDBF11E0A0E0B1E0E6E4FFE644
:1018100002C005900D92A438B107D9F727E0A4E8DB
:10182000B1E001C01D92A03FB207E1F71BE0CDEF90
:10183000DBE004C02197FE010E949637CC3FD10720
:10184000C9F70E9495230C94A1370C940000CF9205
:10185000DF92EF92FF920F931F93CF93DF936C0170
:101860007A018B01C0E0D0E0CE15DF0589F0D80108
:101870006D918D01D601ED91FC910190F081E02DEB
:10188000C6010995892B11F47E0102C02196ECCF87
:10189000C701DF91CF911F910F91FF90EF90DF90E3
:1018A000CF9008950895089580E090E008950E94F3
:1018B0009C37CF92DF92EF92FF920F931F93CF93BB
:1018C000DF938C016A017B01FC01D485DD2309F1E2
:1018D000C785CE5FC230E8F0F801878590E00296B8
:1018E0002C2F30E08217930729F02091C201269512
:1018F000217001C02D2FF801628173816E197F095B
:10190000808191818C199D094C2F0E94031EC1502A
:10191000E1CFDF91CF911F910F91FF90EF90DF907A
:10192000CF9008953FB7F8948091C9019091CA0172
:10193000A091CB01B091CC0126B5A89B05C02F3F4B
:1019400019F00196A11DB11D3FBFBA2FA92F982FE5
:101950008827820F911DA11DB11DBC01CD0142E060
:10196000660F771F881F991F4A95D1F708958F92A8
:101970009F92AF92BF92CF92DF92EF92FF926B0154
:101980007C010E94920C4B015C01C114D104E10462
:10199000F104F1F00E94920CDC01CB018819990945
:1019A000AA09BB09883E9340A105B10570F321E067
:1019B000C21AD108E108F10888EE880E83E0981E6B
:1019C000A11CB11CC114D104E104F10419F7DDCF4D
:1019D000FF90EF90DF90CF90BF90AF909F908F904F
:1019E00008951F920F920FB60F9211242F933F93D9
:1019F0008F939F93AF93BF938091840190918501C2
:101A0000A0918601B09187013091C80123E0230F96
:101A10002D3720F40196A11DB11D05C026E8230F26
:101A20000296A11DB11D2093C8018093840190935B
:101A30008501A0938601B09387018091C90190919F
:101A4000CA01A091CB01B091CC010196A11DB11D9D
:101A50008093C9019093CA01A093CB01B093CC01AC
:101A6000BF91AF919F918F913F912F910F900FBE9A
:101A70000F901F9018950F930AEF0E947F1A0F91F5
:101A800008950F930BEF0E947F1A0F9108950F9303
:101A900002E00E947F1A0F910895BC0180E090E05F
:101AA0000C94B70C8FB12CB193B130E020953095E8
:101AB00020743327A90123E0559547952A95E1F72E
:101AC000292F30E0209530952071332735952795C3
:101AD00035952795242B8095807F822B089560383B
:101AE0007105D0F440345105B8F4EBE7F7E180E13B
:101AF000849FD001A0781124A60F4770E40FF11D38
:101B00008491A053BE4F222319F06C91862B03C001
:101B100080956C9186238C930895823079F018F427
:101B2000813031F00895843079F0883099F008954B
:101B300080910401865F80930401089580910601DD
:101B40008F5F809306010895809102018F5F8093DB
:101B500002010895809105018F5F8093050108952A
:101B600080912407882361F010921C0710921F07B0
:101B700081508093240781E08093170710922007FB
:101B800008950F931F93CF93DF93409102075091D5
:101B90000307609104077091050783E397E00E94B3
:101BA000590C40910207509103076091040770910E
:101BB000050783E497E00E94590C00910A071091F1
:101BC0000B078091020790910307081B190BC09126
:101BD0000C07D0910D078091040790910507C81B51
:101BE000D90BCD37D10534F18091C201863010F187
:101BF0000E94B00D81E08093170786E08093C501B5
:101C000080912407811116C08091050180932407DB
:101C100080912507815080932507811106C010927D
:101C2000C2018AE08093C50105C08091C1018F5F28
:101C30008093C10120911E0790911B0730911F07CF
:101C40008091180721113CC0692F40911A0791110A
:101C500008C020911C07211104C0311102C0442387
:101C6000E1F02091230774E0479FA0011124911116
:101C700002C060911C07932F990F390F330F97E023
:101C8000899F300D1124320FCA0125E0629F800D1B
:101C9000911D1124232F280F10C02EE0280F49EF8B
:101CA00055E1BE01C8010E94410D809118072091A5
:101CB000230777E0879F200D112449EF55E10CC0E1
:101CC000282F220F280F911102C090911C07230F7B
:101CD000990F290F47E655E1BE01C8010E943B0D4F
:101CE00080911C07882331F02091C20122FB22271A
:101CF00020F909C080911A07811104C080911B0747
:101D0000882361F022E04DEB54E1BE01C801089741
:101D1000DF91CF911F910F910C943B0DDF91CF91EB
:101D20001F910F91089587FD43C0282F082E000CA6
:101D3000330B4091000150E024173507CCF567FDC7
:101D400009C0062E000C770BE0910301F0E06E173E
:101D50007F071CF0809189010895A091C401B0E033
:101D6000AA0FBB1FA95EBE4FE3E055954795EA95C4
:101D7000E1F7649FF001659FF00D749FF00D112451
:101D8000319693E0359527959A95E1F72E0F3F1FF1
:101D9000ED91FC91E20FF31FE491F0E087709F0159
:101DA00002C0359527958A95E2F7C901817008959B
:101DB00081E008959091C401E1EDF5E020E030E08C
:101DC00040814423A1F0DF0111974C9149130FC0CA
:101DD000882319F0108280E00AC0F901EE0FFF1F7E
:101DE0002E0F3F1FF901E053FA4F828108952F5FB4
:101DF0003F4F33962A30310519F780E008950F934D
:101E00001F93E6E3F6E0A0E0B0E05081511120C05E
:101E10009C0184E0220F331F8A95E1F75CE05A9F12
:101E2000F0015B9FF00D1124E55DF94F8B0194E00B
:101E3000000F111F9A95E1F71183008333832283EA
:101E400081E083874187442341F083E1828705C095
:101E500011963C96A630B105C1F61F910F910895D9
:101E6000CF93DF9310929E0610929D061092A006CB
:101E700010929F061092A10695E0C9E040E150E063
:101E800061E0D6E0B7E0A3E07CE0292F30E08823D2
:101E9000E1F0C29FF001C39FF00D1124E657FE4F01
:101EA00011821082138212825583448357834683A2
:101EB0006087D29FF001D39FF00D1124E95FF94FA5
:101EC00011821082138212821582B29FF001B39F99
:101ED000F00D1124ED58F94F1182108213821282F5
:101EE0001682A5836483729FF001739FF00D112405
:101EF000E55DF94F118210821382128215821482DD
:101F000017821682138672876087E4E0220F331FE0
:101F1000EA95E1F7F901EE55F94F1486915008F072
:101F2000B4CF109200061092FF0510920206109294
:101F30000106109203068EE18093050610920606B4
:101F40001092F8051092F7051092FA051092F90513
:101F50001092FC0584E68093FD0580E58093FB05E7
:101F60001092FE051092EF051092EE051092F10509
:101F70001092F00581E08093F20582E08093F405F1
:101F800088EC8093F50583E28093F3051092F605C3
:101F9000DF91CF9108951092C001EAE0F7E083E06D
:101FA000828F838F91E0909302012EE120930401B0
:101FB000909306018093050108950F931F93CF938B
:101FC000DF93EC018C85882309F453C08E85815002
:101FD0008E87811102C01C864CC0888599850C8132
:101FE0001D81080F191F65E0159507956A95E1F7A2
:101FF00002501109181619061CF020E030E002C04A
:1020000024E030E0020F131F44E0159507954A9530
:10201000E1F76A817B816F5F7F4F54E0759567952B
:102020005A95E1F7802F0E94930E811120C06A819A
:102030007B816D5F7F4F34E0759567953A95E1F749
:10204000802F0E94930E811112C02C813D818885C2
:102050009985820F931F9D838C838C819D8125E0C0
:10206000959587952A95E1F79983888302C01C8608
:10207000F4CFDF91CF911F910F910895FF920F93AD
:102080001F93CF93DF93082FC62F80E10E94251D59
:10209000882319F081E08093880180E80E94251D43
:1020A000811110928801D0E010E08091880199E0C0
:1020B000F92EBE01F89E600D711D112421E043E050
:1020C000C8010E94301D80918801BE01F89E600DFC
:1020D000711D112420E041E0C801DF91CF911F91D3
:1020E0000F91FF900C94301DFF920F931F93CF938D
:1020F000DF9320E047E65DE060E070E080E090E0A4
:102100000E943B0D8091C701882309F46FC0C0E194
:10211000D0E021E043E16CE270E0CE010E94531A6E
:102120002196CB36D105A9F720E049EB5CE06DE2C2
:1021300070E082E190E00E94470D8091C2018F5FC4
:102140008093C201893F48F020E040EB5CE06EE004
:1021500070E087E390E00E94470D8091CF018823D3
:1021600071F08091C2018A50873D48F020E044E937
:102170005CE06DE170E081E590E00E94470D8091A8
:10218000C10165E00E946237F82EC2E1D0E010E0A4
:102190001F1571F0AE01475F5F4F00E02AE330E0AA
:1021A0006FE370E0CE010E949E1C1F5F2A96F0CF65
:1021B000C1E0D5E08091C10190E02C2F30E0821782
:1021C0009307A4F08C2F6D2F0E946237992361F042
:1021D000220F331FC901419600E02FE330E0AC012C
:1021E0006AE370E00E949E1CCF5FE4CFDF91CF9145
:1021F0001F910F91FF900895AF92BF92CF92DF92FF
:10220000EF92FF920F931F93CF93DF93CDB7DEB77B
:1022100060970FB6F894DEBF0FBECDBF29833A8317
:102220004B835C836D837E838F839887A986BA8670
:10223000CB86DC86ED86FE860F87188B6B817C81D2
:102240002B853C85A985BA85E981FA814D815E811E
:102250004E0F5F1FA417B507B0F48D859E858A0FBA
:102260009B1FE817F90778F48F819885860F971FD1
:102270002817390744F48F859889280F391F81E082
:10228000621773070CF080E060960FB6F894DEBF1B
:102290000FBECDBFDF91CF911F910F91FF90EF90B7
:1022A000DF90CF90BF90AF9008952F923F924F92C2
:1022B0005F926F927F928F929F92AF92BF92CF92D6
:1022C000DF92EF92FF920F931F93CF93DF93CDB7DF
:1022D000DEB7A7970FB6F894DEBF0FBECDBF55E0AF
:1022E000552E66E0462E76E9672E712CE4E62E2EFA
:1022F000F9E03F2EE52CF12C4E9CD0014F9CB00D07
:102300001124A95FB94F15968C911597882309F46C
:1023100068C012966D917C911397809104079091FB
:102320000507681B790B8D919C911197E09102072D
:10233000F091030714962C9147EE53E18E1B9F0BEF
:102340000E94470D80917D0790917E07B3010E9406
:102350006E37009709F045C0EEEAF6E020812111C2
:102360003AC024E0880F991F2A95E1F7DC01AE55A9
:10237000B94F21E01C962C931C971F961C921F9717
:102380004E9CF0014F9CF00D1124E95FF94F228122
:1023900033812B5F3F4F13963C932E9312972081EE
:1023A00031812A5F3F4F45E0220F331F4A95E1F705
:1023B00015963C932E9314972481211103C024EC8D
:1023C0003FEF02C02CE330E0FC01EE55F94F3187BE
:1023D0002087268606C0019670968630910509F002
:1023E000BDCF3E9C80013F9C100D112406571E4F0F
:1023F000780138E0E30EF11CD80118962C9122FDEB
:1024000030C05A94BFEF5B1275CFE9E7F6E0FFA347
:10241000EEA303E7602E06E0702E26E336E039A334
:1024200028A38BE2282E86E0382E83E396E09F8F48
:102430008E8FA5E3B6E0B98FA88FE8E7F6E0FB8FB3
:10244000EA8F27E736E03F8B2E8B1BA21AA21D8A4C
:10245000CE0109969A8B898BDE011196BC8BAB8BD2
:1024600008C1F801C080D1808091020790910307D4
:10247000C81AD90AA280B3808091040790910507F9
:10248000A81AB90A237045EC53E1B501C6010E94B0
:10249000470DD80118968C9198E0892E912C80FFD9
:1024A00003C00C5F1F4F18C00A5F1F4FD8018D91EA
:1024B0009C91881699060CF0A4CFF7012081237017
:1024C000B4016A0D7B1D45EC53E1C6010E94470D26
:1024D000F8E08F0E911CEACFD8018D919C9188165F
:1024E000990608F08ECFF7012081237045EC53E167
:1024F000B501C4018C0D9D1D0E94470DF8E08F0EA3
:10250000911CEACFFD89FF5FFD8B80917D0780FFE5
:10251000B7C0EA8DFB8D808118160CF0BEC02091EB
:10252000C20122FB222720F9D30112966D917C91E2
:1025300013978091040790910507681B790B8D9183
:102540009C91E0910207F091030745EA53E18E1B4D
:102550009F0B0E943B0DF301428153818091040740
:1025600090910507481B590B4D5F5F4F608171814A
:102570008091020790910307681B790BAE89BF8990
:102580008C91811184C083E090E0680F791F20E076
:102590008AE797E00E946F0DF30142815381809199
:1025A000040790910507481B590B4D5F5F4F6081F1
:1025B00071818091020790910307681B790BAE89A6
:1025C000BF898C91811166C085E090E0680F791F0A
:1025D00020E08AE797E00E946F0DE8A1F9A18081D1
:1025E000811185C00AA11BA10E55194FF8018485E0
:1025F000882371F0C8010E94DD0F409102075091BD
:1026000003076091040770910507C8010E94590CE7
:102610002EA13FA1295F3F4F3FA32EA337E0630EBA
:10262000711C8AA19BA140969BA38AA3A8A1B9A1D2
:102630001C96B9A3A8A3BCE02B0E311CEE8DFF8D18
:102640003C96FF8FEE8F288D398D245F3F4F398F59
:10265000288F8A8D9B8D07969B8F8A8FAE89BF8925
:102660001796BF8BAE8BEAA1FBA1E036F10509F40A
:1026700027C1EEA1FFA18081882309F4AECF42CF0C
:10268000AA8DBB8D8C9118160CF471C542CF84E0D5
:1026900090E07BCF86E090E099CF8150EA8DFB8D72
:1026A000808380917D0780FD18C0D30112966D91C3
:1026B0007C9113978091040790910507681B790B13
:1026C0008D919C91E0910207F091030722E045EA89
:1026D00053E18E1B9F0B0E943B0DEA8DFB8D808189
:1026E000823E0CF07ACFAEA1BFA11C9276CFFD89BD
:1026F000FF5FFD8B88E0A989BA89E82F1D92EA95D2
:10270000E9F7F4E6FD871E8626E42F87188AD101B3
:102710008D909C9011979A86898612964D905C9028
:1027200013975C864B86EB89FC8911928A95E9F7B1
:1027300064E66D831E822F83188620910A073091EC
:102740000B073D8F2C8F2C8D8C8D9D8D9A838983CB
:10275000A0910C07B0910D07BDA3ACA34CA1BC8305
:10276000AB83A984BA84CB84DC84ED84FE840F859A
:1027700018893A815C8170E086E490E00E94FC1048
:10278000882309F1E88DF98D80811816E4F4809191
:10279000C201982F9770943009F423C5982F917334
:1027A000903109F41EC5982F9F73973109F419C50C
:1027B00080917D0790917E0766E970E00E946E37F8
:1027C000009709F454C5D10112960D911C911397ED
:1027D0008091040790910507081B190B0D5F1F4F8F
:1027E0002D913C918091020790910307281B390B92
:1027F0007901BFEFEB1AFB0A6901EBE0CE0ED11CA9
:10280000EC14FD0451F020E047E0B801C7010E943C
:10281000531AFFEFEF1AFF0AF3CFA88DB98D8C91F1
:10282000181624F5EE8DFF8D2081220F9091C201A4
:10283000907681E0903409F080E0280FD101129663
:102840006D917C9113978091040790910507681B07
:10285000790B8D919C91E0910207F09103074BE277
:1028600053E18E1B9F0B0E943B0DBCCE8150E88D27
:10287000F98D808380917D0780FD18C0D10112966B
:102880006D917C9113978091040790910507681BC7
:10289000790B8D919C91E0910207F091030724E060
:1028A0004BE253E18E1B9F0B0E943B0DE88DF98D8F
:1028B0008081823E0CF096CEA8A1B9A11C9292CE46
:1028C0008091A1068823C9F060919F067091A006AF
:1028D0008091040790910507681B790B80919D06F4
:1028E00090919E06E0910207F091030720E04FE1EE
:1028F00053E18E1B9F0B0E94470D80910606882393
:1029000009F4ECC0FD89FF5FFD8B80910506181668
:102910000CF097C08091C20163E00E946237911170
:1029200090C02091030630E0F901EB5AFE4F408140
:102930008091FF0590910006840F911D47FD9A95A7
:10294000909300068093FF05F9013496EF70FF27FE
:10295000EB5AFE4F20816091010670910206620FD2
:10296000711D27FD7A9570930206609301066850E9
:102970007109E4E075956795EA95E1F70897F4E049
:1029800095958795FA95E1F70E94930E882361F15A
:102990008091030690E008968F7099278093030634
:1029A000FC01EB5AFE4F40812091FF05309100065B
:1029B000240F311D47FD3A95309300062093FF0503
:1029C000FC013496EF70FF27EB5AFE4F2081809177
:1029D000010690910206820F911D27FD9A95909312
:1029E00002068093010613C00E94DB3624E630E025
:1029F00040E050E00E94FF36653071058105910589
:102A000034F49091040681E0892780930406809134
:102A1000C20169E00E946237911113C090910406CF
:102A200080910306992331F08F5F803140F010923E
:102A3000030607C0882311F0815001C08FE0809306
:102A4000030680910506181604F52091C20126950B
:102A500021706091010670910206685071098091A1
:102A6000040790910507681B790B8091FF059091F1
:102A700000060897E0910207F09103074DEB52E141
:102A80008E1B9F0B0E943B0D29C081508093050631
:102A900080917D0780FD1CC0609101067091020647
:102AA000685071098091040790910507681B790BA4
:102AB0008091FF05909100060897E0910207F09140
:102AC000030722E04DEB52E18E1B9F0B0E943B0D52
:102AD00080910506823E14F4109206068091FE0550
:102AE000882309F418C2E090F705F090F805BB249C
:102AF000B39480910A0790910B07E816F9060CF041
:102B0000B12C2D892F5F2D8B8091FB0518160CF0B1
:102B100075C18091FD0581508093FD05811186C0AE
:102B20000E94DB361091FC05212F287329F0177CB9
:102B30001093FC0582E30EC024E630E040E050E054
:102B40000E94FF36643148F416FD09C010641093EA
:102B5000FC0584E68093FD0551C1683220F417FD21
:102B600002C01068F4CF80E58093FD050E94DB363B
:102B70002CE330E040E050E00E94FF36862F409189
:102B8000FC05E42FE7704E2F50E04730510508F068
:102B900035C1FA01EF58FF4F0C9496376AE00E9456
:102BA00062378F5F98E0899F90011124822B3BC090
:102BB000643110F483E237C0683210F480E133C02E
:102BC0008EE231C0643110F48CE12DC0683210F413
:102BD00088E029C085E327C0643110F484E123C074
:102BE000683210F488E21FC081E31DC0643110F424
:102BF0008BE019C0683210F480E315C08AE213C07C
:102C0000643110F482E20FC0683210F488E10BC026
:102C10008EE009C0643110F485E105C0683210F41B
:102C200080E201C089E18093FC05E8C09091FC0539
:102C300097FF8AC08A3508F087C08091020790917B
:102C40000307E81AF90AA5E0BA9EE00CF11C11246A
:102C5000C090F905D090FA0580910407909105077E
:102C6000C81AD90AB9E0CB0ED11C1091C201109537
:102C700011701E8B64E1A62E7AE0472E512C612C38
:102C8000712CBB2019F001E010E002C00FEF1FEF24
:102C90000E94DB36A30192010E94FF36DC01CB01CA
:102CA0000496A11DB11D089F9001099F300D189F2A
:102CB000300D112419012E0C3F1CEE89E11103C0C7
:102CC00001E010E002C00FEF1FEF0E94DB3624E0AE
:102CD00030E040E050E00E94FF36DC01CB0102967C
:102CE000A11DB11D089F4001099F900C189F900CD9
:102CF00011248C0C9D1C01E09401A101B601C701B7
:102D00000E949E1C81E0FE89F827FE8BAA94AA20CF
:102D100019F064017101B5CF8091F9059091FA0520
:102D200020910C0730910D07AC0147505109241731
:102D3000350754F00B968217930734F080911707EC
:102D4000811102C00E94B00D8091C20180FD56C069
:102D50008091FC05887390E053E0959587955A958E
:102D6000E1F78330910519F164F481309105A9F000
:102D7000029709F043C08091F7059091F8050297FA
:102D800011C08530910541F1C4F00697B9F58091E5
:102D9000F7059091F805019624C08091F705909170
:102DA000F80502969093F8058093F70527C0809167
:102DB000F7059091F805019605C08091F70590916F
:102DC000F80501979093F8058093F7058091F90530
:102DD0009091FA0501970EC08091F7059091F80542
:102DE00001979093F8058093F7058091F9059091EC
:102DF000FA0501969093FA058093F9058091FB05F9
:102E000018160CF040C04091FC0520910407309149
:102E10000507E0910207F09103078091F705909173
:102E2000F8056091F9057091FA05621B730B47FD77
:102E30001FC020E041EA52E18E1B9F0B0E94410D12
:102E40006091F9057091FA0580910407909105074A
:102E5000681B790B8091F7059091F805E0910207C6
:102E6000F091030720E049E352E18E1B9F0B08C05D
:102E70008E1B9F0B05972B2D43EB51E18B0D911D65
:102E80000E943B0D48C081508093FB0580917D07D7
:102E900080FD34C06091F9057091FA0580910407B6
:102EA00090910507681B790B6C5F7F4F8091F70548
:102EB0009091F8052091020730910307821B930B34
:102EC00020E044E008960E94301D6091F905709161
:102ED000FA058091040790910507681B790B809192
:102EE000F7059091F805E0910207F091030721E0C2
:102EF00049E352E18E1B9F0B0E943B0D8091FB0525
:102F00008A3B4CF41092FE0581E08093C701109239
:102F1000C2011092C5018091F605882309F41BC1F6
:102F20002D892F5F2D8B8091F30518160CF082C030
:102F30008091F50581508093F50581114DC080E5A4
:102F40008093F5050E94DB361091F405E12FE077C0
:102F5000F0E044E0F595E7954A95E1F73197E730E1
:102F6000F105A0F5E858FF4F0C94963788E201C0B0
:102F700084E18093F5052AC02CE330E040E050E086
:102F80000E94FF36812F837F92E69093F50564318E
:102F900020F4137061F0815007C0693240F0137063
:102FA000123028F488608F5F8093F4050FC084602E
:102FB000FBCF9091F20581E089278093F20506C04E
:102FC00084E68093F5051F781093F4058091F4054D
:102FD000805F8093F4052EC08091F405982F907641
:102FE000903441F54091EE055091EF059091F20536
:102FF000911103C021E030E002C02FEF3FEF240F1A
:10300000351F3093EF052093EE059091C20190FD9E
:1030100011C08C7090E0959587959595879501974F
:103020002091F0053091F105820F931F9093F105E7
:103030008093F0058091F30518160CF066C080911E
:10304000F405807790E024E0959587952A95E1F73F
:10305000833091050CF5029721F48091C20180FF25
:103060007AC08091F20527E0829F202D1124609183
:10307000F0057091F1058091040790910507681B98
:10308000790B8091EE059091EF05E0910207F091A8
:10309000030749EF55E134C0079721F48091C2013D
:1030A00080FF59C06091F0057091F105809104078F
:1030B00090910507681B790B8091EE059091EF05C3
:1030C000E0910207F091030722E049E651E18E1BEF
:1030D0009F0B0E94410D6091F0057091F105809168
:1030E000040790910507681B790B8091EE0590917C
:1030F000EF05E0910207F091030720E049E651E176
:103100008E1B9F0B0E943B0D26C081508093F305C0
:1031100080917D0780FD19C06091F0057091F105E7
:103120008091040790910507681B790B8091EE054B
:103130009091EF05E0910207F091030721E049E645
:1031400051E18E1B9F0B0E943B0D8091F3058A3B42
:1031500014F41092F6058091C001882309F4CAC0C6
:103160003D893111C7C089E08093C501C3C0D30137
:1031700012966D917C91139784E0759567958A9569
:10318000E1F72D913C91EE89FF898081811103C087
:1031900080E090E002C089E090E0820F931F14E08D
:1031A000959587951A95E1F70E94930EEE89FF8910
:1031B0009081811110C0D3012D913C91911103C0D8
:1031C0008FEF9FEF02C081E090E0820F931FF30129
:1031D000918380839EC981E08927AE89BF898C93C2
:1031E00098C98076803409F4E3CA81E02C8D3D8D46
:1031F000821693060CF080E0AE8DBF8D8C938C8D83
:103200009D8D8819990903973CF0BFEF8B1A9B0A93
:10321000F101918280820DC0C4012C8D3D8D821BF5
:10322000930B039734F031E0831A9108D1018D920A
:103230009C928CA19DA18419950903973CF0BFEF46
:103240004B1A5B0AF10153824282B2CAC2012CA11D
:103250003DA1821B930B03970CF4AACA31E0431AD9
:103260005108D10113965C924E921297A1CAE88D33
:10327000F98D31972081222309F4A5CAEEEAF6E000
:103280002081211131C0A4E0880F991FAA95E1F790
:10329000FC01EE55F94F21E024871786D1011296E3
:1032A0002D913C9113972C5F3F4F338322832D91B7
:1032B0003C912A5F3F4FB5E0220F331FBA95E1F7EB
:1032C00035832483EE8DFF8D2081211103C024ECF2
:1032D0003FEF02C02CE330E0FC01EE55F94F31879F
:1032E000208784E686876FCA01967096863091059E
:1032F00039F669CAA7960FB6F894DEBF0FBECDBFE8
:10330000DF91CF911F910F91FF90EF90DF90CF90C1
:10331000BF90AF909F908F907F906F905F904F90F5
:103320003F902F900895EF92FF920F931F93CF93AA
:10333000DF931F92CDB7DEB77C01FC0100811181C4
:10334000C80169830E94E9366981681719F0C801CC
:103350000E94F136C7010F90DF91CF911F910F911D
:10336000FF90EF9008950F931F93CF93DF9300D0BA
:10337000CDB7DEB78B01FB0160819A838983CE01D3
:1033800001960E949319C8010F900F90DF91CF9181
:103390001F910F9108950F931F93CF93DF9300D048
:1033A000CDB7DEB7182F882349F020E045E554E17A
:1033B00061E170E08FE290E00E943B0D9091C201CC
:1033C0009E3168F49F5F9093C201109288018CE057
:1033D0000E94251D882319F084E68093C20120E015
:1033E00049EF53E16DE270E08CE290E00E943B0D0A
:1033F00060E387E20E943E108CE00E94251D882336
:1034000009F44AC080918801882389F1E1EDF5E053
:1034100080E090E000E010E021E030E040814111E8
:1034200009C0A901082E02C0440F551F0A94E2F7F3
:10343000040F151F019633968930910579F70E9484
:10344000C91D1A830983CE0101960E94DF1D809158
:10345000C1018F5F8093C1018983BE016F5F7F4F80
:1034600084E691E00E94B3191092C50115C01123A2
:1034700081F01092C4011092C0011092C30183E048
:10348000809325078091C1018F5F8093C10186E001
:1034900001C087E08093C5010F900F90DF91CF911D
:1034A0001F910F910895DF92EF92FF920F931F9358
:1034B000CF93DF937C01D22E8B01040F111DEB0102
:1034C00077FF0EC0C0E0D0E00BC0C417D5077CF476
:1034D0002D2DAE01B7018AE797E00E946F0D21966E
:1034E000A801013411058CF340E450E0EECFDF91E8
:1034F000CF911F910F91FF90EF90DF9008954F9221
:103500005F926F927F928F929F92AF92BF92CF9273
:10351000DF92EF92FF920F931F93CF93DF9300D030
:1035200000D0CDB7DEB7DC014115510509F4F1C17A
:10353000FA0114913196F4914E5F5F4FE12EF12C18
:10354000222309F18F2F869586958695C82ED12C3A
:1035500081E090E03F2F377011F480E090E08C0D17
:103560009D1DE89E6001E99ED00CF89ED00C1124B0
:10357000033011F4CC0CDD1C2C9DC0012D9D900D51
:103580001124480F591F0F3F09F402E0CD018E0DA1
:103590009F1D181619060CF0BCC1A038B1050CF01F
:1035A000B8C19B012F0F311D121613060CF0B1C1CB
:1035B000603471050CF0ADC14115510509F4A9C184
:1035C0009B0177FF04C022273327261B370B322F9E
:1035D00037706B0177FF03C027E0C20ED11C23E0D8
:1035E000D594C7942A95E1F72C2D77FF07C0332394
:1035F00029F02FEF2C0D68E0631B362FB7FF05C0B5
:10360000CC24DD24CA1ADB0A02C0C12CD12C80389C
:10361000910524F080E8982E9A1A01C0912E9C18EA
:10362000622F022E000C770B2F3F1CF4B62EB094A5
:1036300001C0B12C91E08F2F877009F490E0F695CE
:10364000F695F6959F0F690F711D6930710514F09D
:1036500098E0921B792F7B192B0DCD0160E8260392
:10366000800D911D11248C0D9D1DD601B19EA00DC4
:10367000B11D11244A0F5B1FE1E0F0E06F01032E42
:1036800002C0CC0CDD1C0A94E2F7033009F4FDC043
:10369000A0F4013009F4AFC0023009F03AC16FEF75
:1036A0006C9D80016D9D100D1124009510951C835B
:1036B0000B837C80672E620E28C00A3F31F00B3FDF
:1036C00009F027C1B72EB20E82C0B72EB20E4DC080
:1036D000FA01E60FF71FE491EC9D5001ED9DB00C4F
:1036E0001124BA82A98227FD04C0EC91E023AE2AFE
:1036F000AC92311113C06F5F7F4F1196691540F383
:103700002F5F4E0D5F1D80589F4F261509F401C194
:10371000DC01A053BE4F60E070E0F0CF27305CF7D3
:10372000FD01E058FF4FB080B720AA80BA28B082D0
:10373000E2CFFA01E60FF71FE491EC9D8001ED9DC9
:10374000100D11241A83098327FD03C0EC910E2B61
:103750000C93311113C06F5F7F4F1196691548F3B9
:103760002F5F4E0D5F1D80589F4F2B1509F4D1C060
:10377000DC01A053BE4F60E070E0F0CF27305CF773
:103780008D0100581F4FF801A080FA81AF2AF8017F
:10379000A082E1CFFA01E00FF11FE491EC9DB001AE
:1037A000ED9D700D11247A83698327FD04C0609517
:1037B0007C9167236C93311113C00F5F1F4F1196DB
:1037C000091540F32F5F4E0D5F1D80589F4F2B153D
:1037D00009F49FC0DC01A053BE4F00E010E0F0CF21
:1037E00027305CF7FD01E058FF4F6A8160957081DA
:1037F00067236083E2CF772E720EBD01641B750BC9
:10380000271509F486C0FC01E053FE4F5F0100E07C
:1038100010E00915A0F5F801E60FF71FE40FF51FFA
:10382000E491EC9DD001ED9DB00D1124A095B095D3
:10383000BC83AB83FA01E00FF11FE491EC9D200102
:10384000ED9D500C11245A82498227FD05C0F501D7
:10385000B081AB234A2A4082332359F027304CF4FD
:10386000F501E058FF4FB081AC81AB23BA81AB2B9F
:10387000A0830F5F1F4FFFEFAF1ABF0ACACF2F5FA2
:103880004E0D5F1D80589F4FBBCF692C712CFA01E4
:10389000EA0FFB1FDC01A053BE4F8C01005B1D4FE4
:1038A00080E890E05C01A618B708E618F708EE0C6F
:1038B000FF1C972F792C872ECF93DF93E80165911A
:1038C0004591332359F06C9DB0014C9DA0012730E8
:1038D0002CF4D8805095D522D72AD99222233AF0B9
:1038E000DC904095D422D62ADD920C94781C119657
:1038F0009A9429F79A9551F0972C23951124EE0D5F
:10390000F11DAA0DB11DCA0DD11DD9CFDF91CF91E7
:1039100011240F900F900F900F90DF91CF911F9176
:103920000F91FF90EF90DF90CF90BF90AF909F905E
:103930008F907F906F905F904F9008954F925F921D
:103940006F927F928F929F92AF92BF92CF92DF92AF
:10395000EF92FF920F931F93CF93DF93EC017B01C4
:103960006A01C901A901461B570B57FF03C05195B6
:103970004195510996012C1B3D0B37FF03C0319532
:103980002195310911E02417350714F010E00AC021
:103990003C2D2D2D6C01832F922F3C2F2D2FE701D5
:1039A000E32EF22ECC16DD0654F43E2D2F2D7C0195
:1039B000832F922F3C2F2D2FE601C32ED22E2601CE
:1039C0004C1A5D0A4C018E189F0897FE03C0919413
:1039D00081949108520157FE03C02FEFA21AB20A38
:1039E000B594A794E816F90614F08FEF01C081E0B2
:1039F000682E880F7708CC16DD06B4F0202F11232F
:103A000019F0AE01B70102C0A701BE018AE797E035
:103A10000E946F0DA818B908B7FE04C0E60CF71C89
:103A2000A40CB51C2196E7CFDF91CF911F910F9188
:103A3000FF90EF90DF90CF90BF90AF909F908F90CE
:103A40007F906F905F904F9008952091800728237A
:103A500029F490917F07982381E009F480E008958C
:103A60002F923F924F925F926F927F928F929F928E
:103A7000AF92BF92CF92DF92EF92FF920F931F937C
:103A8000CF93DF9300D000D0CDB7DEB75C014B0100
:103A9000322E842F90E09C838B83440F4F5F681BF2
:103AA000790BC5010E94531A01E010E0EB81FC8103
:103AB0000E1B1F0BCF019195819591093C01660C5E
:103AC000771CE12CF12CCC24C394D12C8B819C81CC
:103AD000E816F9060CF046C017FD0AC08B819C81E0
:103AE00001979C838B8392E0690E711C060D171D54
:103AF000EFEFEE1AFE0AF2E0CF0ED11C0C0D1D1DE9
:103B00002B80220C2394232D422D24018B819C8118
:103B1000481A590AB201C7018A0D9B1D0E94531A07
:103B2000F401EE19FF09FA83E983232D4C2DBF011F
:103B30008B819C818A0D9B1D0E94531A232D422D3F
:103B4000B201C5018E199F090E94531A232D4C2DD5
:103B500069817A81C501EB81FC818E1B9F0B0E94DC
:103B6000531AB4CF0F900F900F900F90DF91CF9119
:103B70001F910F91FF90EF90DF90CF90BF90AF908B
:103B80009F908F907F906F905F904F903F902F907D
:103B90000895CF93DF9300D0CDB7DEB76091CF010A
:103BA00081E691E09A838983CE0101960E94931960
:103BB0008FEC91E00F900F90DF91CF9108950F93CC
:103BC0001F93CF93DF9300D0CDB7DEB78C01FC01FC
:103BD000608182E691E09A838983CE0101960E94FA
:103BE0009319F801618183E691E09A838983CE017C
:103BF00001960E949319C8010F900F90DF91CF9109
:103C00001F910F9108952F923F925F926F927F9232
:103C10008F929F92AF92BF92CF92DF92EF92FF92DC
:103C20000F931F93CF93DF9300D000D000D0CDB778
:103C3000DEB78C017B01522E242F30E03E832D8392
:103C400081E090E05C01A21AB30AC90191958195C7
:103C50009109FC01EE0FFF1FFA83E983A901460FCA
:103C6000571F252DB8018AE797E00E946F0DA70125
:103C70002D813E81421B530B252DB8018AE797E029
:103C80000E946F0D6D817E81600F711F252DA70130
:103C90008AE797E00E946F0DB8018D819E81681BB5
:103CA000790B252DA7018AE797E00E946F0DC12CA3
:103CB000D12CE1E0F0E0FC83EB832D813E81C21644
:103CC000D3060CF070C0B7FC0DC02D813E81215091
:103CD00031093E832D8389819A8102969A83898353
:103CE000A80EB91E9FEFC91AD90AEB81FC81329642
:103CF000FC83EB83AE0EBF1E3601600E711E252DB8
:103D00008D809E808E0C9F1CA401B3018AE797E0F2
:103D10000E946F0D18012C183D08252DA401B1013A
:103D20008AE797E00E946F0D252D47018D819E81C6
:103D3000881A990AA401B3018AE797E00E946F0DDF
:103D4000252DA401B1018AE797E00E946F0D46017D
:103D50008E0C9F1C252DA4016D807E80600E711E2F
:103D6000B3018AE797E00E946F0D252DA401180189
:103D7000ED81FE812E1A3F0AB1018AE797E00E9489
:103D80006F0D47018C189D08252DA401B3018AE70A
:103D900097E00E946F0D252DA401B1018AE797E0FD
:103DA0000E946F0D8ACF26960FB6F894DEBF0FBE25
:103DB000CDBFDF91CF911F910F91FF90EF90DF90DA
:103DC000CF90BF90AF909F908F907F906F905F90BB
:103DD0003F902F9008958091D0018EBDE1EDF1E0EC
:103DE00081910DB407FEFDCF8EBD85E0E03DF80763
:103DF000B9F70DB407FEFDCF089580E0E0EDF1E0E6
:103E000081118FEF00248193819381938193039497
:103E1000D1F70895FC018091CE01811103C08FEF8D
:103E20009FEF08959FB7F89482E08093E900209176
:103E3000F20030E01216130614F421E030E02115F0
:103E4000310559F0289884E68093CD018091F100E6
:103E500080838091F200882319F09FBFC9010895E3
:103E60008BE68093E800F9CF2FB7F89483E0809336
:103E7000E9009091E800892F807295FF04C090912D
:103E8000F20080E4891B2FBF089580919007811173
:103E90000DC082E080938C0784E080938D071092A0
:103EA0008F0710928E0781E0809390078CE897E04F
:103EB0000895CF93DF931F92CDB7DEB76983DC01FE
:103EC000ED91FC910280F381E02D41E050E0BE01D4
:103ED0006F5F7F4F09950F90DF91CF91089583E039
:103EE0008093E9008091F200882319F08AE380939F
:103EF000E8000895FC018485958597FD0BC09FB768
:103F0000F89482E08093E9008091F2009FBF90E0F6
:103F1000019608959FB7F89482E08093E90080911C
:103F2000F2009FBF90E008958F929F92AF92BF9250
:103F3000CF92DF92EF92FF920F931F93CF93DF9375
:103F40005C016B017A0180911201882309F45BC046
:103F50008091CE01882309F456C08091EE0780FF3E
:103F600005C08091E00082608093E000E70110E0EE
:103F70000AEF83E0882E9AE3992E2097D9F10E94C8
:103F8000341F81110AC0015009F43DC061E070E0A6
:103F900080E090E00E94B70CF0CF282F30E0C217ED
:103FA000D3070CF48C2F4FB7F8948092E9009091CE
:103FB000E80095FF1DC0282F30E0C21BD30BF6018F
:103FC000982F915020F081918093F100FACFC20E8A
:103FD000D31E112319F09092E80009C08091E800E7
:103FE00085FD06C09092E80011E0209709F010E0EE
:103FF0004FBFC3CF1111C3CF5D9884E68093EF0705
:104000001E141F0444F081E090E0F5019383828345
:1040100080E090E001C0C701DF91CF911F910F9127
:10402000FF90EF90DF90CF90BF90AF909F908F90D8
:1040300008950E94341F90E00895CF93DF931F925C
:10404000CDB7DEB7FC018485958597FD05C02FEFC0
:104050003FEF358724870BC0CE0101960E940A1FCF
:10406000019719F4898190E002C08FEF9FEF0F90C4
:10407000DF91CF9108950F931F93CF93DF931F92FA
:10408000CDB7DEB78C01FC018485958597FF0EC006
:10409000CE0101960E940A1F019719F4298130E090
:1040A00002C02FEF3FEFF80135872487F8018485A0
:1040B00095850F90DF91CF911F910F910895DF9219
:1040C000EF92FF920F931F93CF93DF93D82E8A0125
:1040D0007B01E40EF51EEB01CE15DF0571F0D7FE76
:1040E00003C0FE01849101C088810E945A23219659
:1040F0008111F2CF8FEF9FEF01C0C801DF91CF9107
:104100001F910F91FF90EF90DF9008950F931F93F1
:10411000CF93DF931F92CDB7DEB782E0898342E46D
:1041200050E063E877E180E80E945F200E94451F2D
:10413000DC0112960D911C9113970115110569F080
:10414000D801ED91FC910280F381E02DBE016F5FFB
:104150007F4FC801099597FF07C089810F90DF91B4
:10416000CF911F910F910895F80100851185E5CF3A
:104170001F920F920FB60F9211248F939F938091ED
:10418000E1009091E100937F9093E10083FF0FC0E5
:104190001092E90091E09093EB001092EC0092E312
:1041A0009093ED001092CE0198E09093F00082FF82
:1041B00020C093E09093E9009091F200992319F0C8
:1041C0009AE39093E8009091EF07992339F090914A
:1041D000EF0791509093EF07992389F19091CD01CA
:1041E000992339F09091CD0191509093CD0199236D
:1041F00041F184FF10C08091E2008E7E8160809347
:10420000E2008091E1008F7E8093E1008091EE07D3
:104210008E7E806111C080FF16C08091E2008E7E8C
:1042200080618093E2008091E1008E7E8093E100C6
:104230008091EE078E7E81608093EE0704C05D9AC8
:10424000CDCF289AD6CF9F918F910F900FBE0F9010
:104250001F9018951F920F920FB60F921124CF92B4
:10426000DF92EF92FF920F931F932F933F934F9301
:104270005F936F937F938F939F93AF93BF93EF93CE
:10428000FF93CF93DF93CDB7DEB76C97DEBFCDBF83
:104290001092E9008091E80083FFEDC168E0CE0153
:1042A00045960E94882382EF8093E8008D8987FFDE
:1042B00005C09091E80090FFFCCF03C09EEF909363
:1042C000E800982F907609F0C6C09E892F89188D36
:1042D00091110CC0803829F48091ED078093F10092
:1042E00002C01092F1001092F10048C1422F50E03C
:1042F000512B913051F4811141C14130510509F0E8
:104300003DC18091ED078D7F0BC0933061F4811129
:1043100035C14130510509F031C18091ED0782600E
:104320008093ED072BC1953041F48091E80080FF28
:10433000FCCF20682093E30021C1963009F05FC0D4
:10434000EB8CFC8C1092E9001092EB071092EA07BC
:10435000123091F51092E9071092E8070E9486202A
:1043600099E0BE016F5F7F4FDB01E92F1D92EA9557
:10437000E9F799831A8391E09E8390EA98879AEFF0
:1043800099872091EA073091EB07275F3F4F3C83E5
:104390002B838D831092E9001092EB071092EA07AD
:1043A000F092E907E092E80749E050E080E00E94DF
:1043B0005F200E948620E2C0F092E907E092E807C1
:1043C0000E94451FDC011296ED90FC901397E114BA
:1043D000F10409F4C0C0D701ED91FC910480F5818E
:1043E000E02DBE016B5E7F4FC7010995009719F064
:1043F0000CF0C4C0C7C0F701E084F184E8CF973067
:1044000009F4C0C0983021F481E08093F100B6C077
:10441000993009F0B3C0837009F0B4C0EEE7F1E061
:1044200081E021E036E39081992361F08093E900F7
:104430002093EB0091919093EC003093ED008F5F0F
:10444000873089F78EE78093EA001092EA008F891F
:104450008093CE0193C08B8D9C8D1092E9001092B9
:10446000EB071092EA079093E9078093E807898D9C
:10447000811156C08E899D89913A59F4813209F093
:1044800081C047E050E06BE071E080E00E945F2077
:1044900075C0913209F076C0833289F4888D90E03E
:1044A000982F88272F89822BA0E0B0E08093070106
:1044B00090930801A0930901B0930A015FC0803274
:1044C00069F48091E80082FFFCCF67E08BE091E027
:1044D0000E9488238BEF8093E80006C0823209F0A7
:1044E0004DC08F89809312018091EC07882319F0C9
:1044F000EEEFFAE002C0E0E0F8E080910B0190916D
:104500000C01A0910D01B0910E01803B9440A105DA
:10451000B10509F07BC08091120180FF93C076C085
:104520000E94451FDC0112960D911C9113970115F5
:10453000110541F1D801ED91FC910190F081E02D40
:10454000BE016B5E7F4FC8010995811117C0F8014C
:1045500000851185ECCF113009F44EC0133091F471
:104560008F89882309F445C0823081F440E860E1F6
:1045700087EE97E10E945036882321F08EEF8093DA
:10458000E80079C081E28093EB0075C0813029F4A6
:1045900040E86BE08BED97E1EDCF833099F70E9417
:1045A000451FDC011296ED90FC9013978E010F5F72
:1045B0001F4F6801E114F10479F0D701ED91FC91EE
:1045C0000680F781E02DB801C7010995080F111D7C
:1045D000F701E084F184EECFD8011C92F60101903E
:1045E0000020E9F73197BF016C197D0940E0C60151
:1045F000C1CF65EC77E102C069EC77E16115710527
:1046000009F2FB01449150E080E840CF0FB6F894E6
:10461000A89580916000886180936000109260008E
:104620000FBEA895EE3F2AE0F20739F08091FE0A0E
:104630009091FF0A91838083A1CF1092FF0A10927C
:10464000FE0A9CCFEE3F8AE0F80731F0808191812D
:104650009093FF0A8093FE0A87E797E79183808310
:104660009BE088E10FB6F894A895809360000FBE98
:104670009093600083CF6C960FB6F894DEBF0FBEA8
:10468000CDBFDF91CF91FF91EF91BF91AF919F91FE
:104690008F917F916F915F914F913F912F911F91DA
:1046A0000F91FF90EF90DF90CF900F900FBE0F9083
:1046B0001F9018954091EA075091EB072091E80769
:1046C0003091E90742175307B4F49091E8009570D0
:1046D000E1F39091E80092FD19C08093F100809180
:1046E000EA079091EB0701968F739927892B19F4AC
:1046F0008EEF8093E8008091EA079091EB07019696
:104700009093EB078093EA0781E0089580E0089595
:10471000615030F02091F100FC0120830196F8CF28
:10472000289884E68093CD010895CF93DF93CDB789
:10473000DEB7A8970FB6F894DEBF0FBECDBF789452
:1047400084B5826084BD84B5816084BD85B5826096
:1047500085BD85B5816085BD80916E008160809347
:104760006E001092810080918100826080938100B0
:1047700080918100816080938100809180008160C0
:10478000809380008091910082608093910080915D
:10479000910081608093910080919000816080936E
:1047A00090008091C10084608093C1008091C1001D
:1047B00082608093C1008091C10081608093C100BC
:1047C0008091C30081608093C3008091C0008260AB
:1047D0008093C0008091C20081608093C20080916C
:1047E0007A00846080937A0080917A00826080935E
:1047F0007A0080917A00816080937A0080917A00BB
:10480000806880937A001092CE011092ED0710928A
:10481000EE078091D70081608093D70080EA809373
:10482000D80089B5806189BD89B5826089BD09B428
:1048300000FEFDCF61E070E080E090E00E94B70CE8
:104840008091D8008F7C80618093D8008091E000B7
:10485000807F8093E0008091E1008E7E8093E10074
:104860008DE08093E200559A209AEEEFFFE7859164
:1048700094918B3F9C4D19F481E08093EC0781EC7F
:1048800080937C0085B1806F85B9249884B1866E51
:1048900084B95E9A5F988AB1806D8AB9769A6E986B
:1048A00081B3806F81BB899880B38D7080BB80E5B8
:1048B0008CBD81E08DBD85E090E00E944D0D5F9A3A
:1048C00085E090E00E944D0D5E985C98E4E4F8E08D
:1048D0008DE08E0F94919EBD00000DB407FEFDCFBC
:1048E00031968E13F7CF5C9A81E88093640081E063
:1048F000809365002E980EEE1FEF0E94520D86FFEA
:1049000003C02E9A2F9A2DC00C3F3FEF130719F4C6
:104910002E9A2F9805C00831110511F42F9A2D9861
:104920000E94FD1E20E041E558E0B80184E190E0DE
:104930000E943B0D0E94EB1E8BE190E00E944D0D0A
:10494000003F4FEF140721F48AEF90E00E944D0DD5
:104950000F5F1F4F0931110581F68CEB92E00E9429
:104960004D0D2D9A80E180938107809164008E7FA8
:104970008093640080917A00806480937A008091B3
:104980007A0086FDFCCF00917800109179000E949A
:10499000920C20E030E0980111270027600F711F72
:1049A000821F931F611571058105910511F00E9409
:1049B000E0368091640081608093640080E691E03D
:1049C0000E94E9368E3CC9F08EEC8983BE016F5F90
:1049D0007F4F80E691E00E94B3190E94C91D1A82A0
:1049E0001982CE0101960E94DF1D1982BE016F5F00
:1049F0007F4F84E691E00E94B319BE016F5F7F4F45
:104A00007A8F698FCE0109969C8F8B8F2FB7F89480
:104A10008091840190918501A0918601B0918701D8
:104A20002FBF40918607509187076091880770914A
:104A3000890720918A07222349F020918207821B4F
:104A400080938B0710928A070C941634841795076D
:104A5000A607B70788F4481B423010F40C941634AC
:104A600083B7817F83BF83B7816083BF889583B716
:104A70008E7F83BF0C94163421E020938A078093A5
:104A8000820790938307A0938407B09385072091B2
:104A90008107820F911DA11DB11D80938607909300
:104AA0008707A0938807B093890780917D0790912D
:104AB0007E07019690937E0780937D0780917F0704
:104AC000809380070E94520D80937F070E94FD1EF5
:104AD000E091C5018E2F90E08D30910510F00C947F
:104AE0001434FC01EA5AFF4F0C9496370E9474105C
:104AF0008CE00E94251D882311F40C94143481E06D
:104B00000C9412340E9474108CE00E94251D8111B7
:104B10001092880183E00C9412340E94741020E0FB
:104B200043E059E061E170E084E390E00E94470DCA
:104B300065E180E30E943E108CE00E94251D8823E1
:104B400011F40C941434809188018093CF018CE08F
:104B50001DC00E94741020E046E559E061E170E05C
:104B600084E390E00E94470D65E180E30E943E10DF
:104B70008CE00E94251D882311F40C94143480913C
:104B80008801811102C082E001C08BE08093C501E1
:104B9000109288010C94143410920B0710920A079B
:104BA00010920D0710920C0710920F0710920E072B
:104BB000109211071092100710921307109212070B
:104BC000109215071092140781E080931607109237
:104BD00020071092210710921807109219071092BF
:104BE0001A0710921B0710921C0780931D07109242
:104BF0001E071092220710921F078CE3809326074E
:104C000010923F0710924F0781E00E94300FE09111
:104C1000C401F0E0EE0FFF1FE95EFE4F008111813D
:104C2000E7E5F7E08FEF9FEF23E1918380839383A4
:104C3000828324833596A7E0EA37FA07B1F76091BB
:104C4000C20170E080E090E0611571058105910579
:104C500011F00E94E036F80184918093C60191E042
:104C600090938901E82FE295EF708E2F90E0FC0180
:104C70003197EE30F10528F5ED59FF4F0C9496373A
:104C800088E020C080E117C088E103C0109289014C
:104C900080E28093000180E117C080E105C010929E
:104CA000890180E208C088E08093000180E20CC0A6
:104CB0001092890188E18093000188E005C010927C
:104CC000890188E1809300018093030180910001B4
:104CD00040900301849D2001112463E05594479482
:104CE0006A95E1F7FFEF4F1A5F0A400E511EF2017D
:104CF000849141E001E076E0E72EE7E0DE2EF8E087
:104D00002F2E312CA4E0AA2EB5E0CB2E8F3F09F434
:104D1000FDC1F82FFF71BF2EFF24F394F40EF201B2
:104D2000E40FF11D1491212F2295269527701F71F4
:104D3000E82FE07EE03609F489C0D0F4E03231F1AA
:104D4000E03409F452C0E111DAC1110F1092530797
:104D500010935407BB0C10925507B092560710924F
:104D60000E0710930F0710921007B0921107C7C1DA
:104D7000E03A09F4ADC1E03C09F45CC1E03809F067
:104D8000BEC1E2E9F1E080E090E0E1C0E7E5F7E0F4
:104D900080E090E0208131812F3F3F4F01F5C89E98
:104DA0009001C99E300D1124D901A95AB84F60E174
:104DB000169FF00111241196FC93EE9380E1B89EAA
:104DC000B001112413967C936E9312974E5FF201FB
:104DD000EF0DF11DE4911496EC93F42E90C1019621
:104DE000359687309105B1F68AC1222329F080914A
:104DF000CF01882309F483C1E9E7F6E020E030E041
:104E0000808181111CC090E1B99EB0011124D29E15
:104E1000C001D39E900D1124DC01AD58B94F20E1A3
:104E2000129FF00111241196FC93EE936C5F7F4F5B
:104E300013967C936E93129716960C9360C12F5F16
:104E40003F4F379626303105D9F659C12230E1F16E
:104E500098F4222359F1213009F051C1812F90E0BB
:104E60009AA389A3AB2DB0E0BCA3ABA341E069A199
:104E70007AA18BA19CA13AC0243009F44FC0C8F19B
:104E8000263009F03CC190E1199FF0011124F09304
:104E9000F805E093F705A0E1BA9EB00111247093E4
:104EA000FA056093F9050093FE0529C1412F50E0F2
:104EB0005E8F4D8F6B2D70E078A36F8F40E06D8D0E
:104EC0007E8D8F8D98A112C08091CF01882309F427
:104ED00016C1E12FF0E0FEA3EDA32B2D30E038A7A3
:104EE0002FA340E06DA17EA18FA198A50E94FF0E87
:104EF00006C130E1139FF0011124F0930006E09306
:104F0000FF0540E1B49EB001112470930206609346
:104F100001060093060600930306F1C050E1159FB9
:104F2000F0011124F093EF05E093EE0580E1B89EC7
:104F3000B00111247093F1056093F0050093F6051C
:104F4000DEC0019639968630910509F4D8C03081CB
:104F500032FDF7CF622E712CBFEF6B1A7B0A54E043
:104F6000660C771C5A95E1F7E9E0E89F9001E99F0C
:104F7000300D1124A90146575E4F4A0150E1159F9B
:104F8000C0011124D4018D939C93B0E1BB9EC0015C
:104F90001124F4019383828361E06B0D812F0E94C1
:104FA000930E8823B1F0D4011896CC9218971596D9
:104FB0007C926E92149717963C922E9216971296A8
:104FC0008D919C911397089613969C938E931297AC
:104FD00096C06B2D8FEF810F0E94930E882339F0BE
:104FE000F401A086358224827782668288C06B2D88
:104FF00081E0810F0E94930E882369F0D4011896F6
:10500000EC92189715963C922E92149717967C92D4
:105010006E9216974EC06FEF6B0D812F0E94930E0C
:10502000882309F46CC0F401D086758264823782CB
:10503000268265C0222329F08091CF01882309F4BC
:105040005EC0ECE0F6E020E030E08081811138C005
:10505000F0E1BF9EC0011124E29EA001E39E500D2D
:1050600011249A01295F394F490140E1149F9001B1
:105070001124D40111963C932E93049613969C937D
:105080008E93129715960C936B2D8FEF810F0E94C4
:10509000930E882319F0F401048331C06B2D81E055
:1050A000810F0E94930E882351F1D40114961C9213
:1050B00014978D919C91119708968D939C931FC086
:1050C0002F5F3F4F36962630310509F0BECF17C00F
:1050D0008091A106811113C0B0E1BB9EB0011124E3
:1050E0007093A00660939F0620E1129FF0011124A7
:1050F0003296F0939E06E0939D060093A10641E050
:105100004F0DF201EF0DF11D849100CE80915307F8
:105110009091540790930F0780930E078091550745
:105120009091560790931107809310078091C301C7
:10513000882341F190E0019725E0289FF001299F05
:10514000F00D1124E95AF84F2081318105E0220F3A
:10515000331F0A95E1F730930F0720930E078281E2
:10516000938145E0880F991F4A95E1F790931107C5
:10517000809310073093540720935307909356075A
:10518000809355072091C401E0EDF5E080E090E0C8
:105190003081321313C0FC01EE0FFF1F8E0F9F1FD3
:1051A000FC01E053FA4F8181882321F081E0809354
:1051B000C00109C080E00E94300F05C001963396FF
:1051C0008A30910529F71092C2010C949D33809189
:1051D000C2018F5F8093C20180912407882309F464
:1051E00094C1109219070E94520D84FF03C08CEEE7
:1051F0009FEF06C00E94520D87FF06C084E190E039
:10520000909309078093080780911F07811197C029
:105210000E94520D85FF49C080E38093010181E027
:105220008093180780911E07811189C080911A0709
:10523000811130C080911C0781112CC080911B0707
:10524000811128C060910C0770910D07685F7F4F36
:10525000A4E075956795AA95E1F780910A0790916A
:105260000B070197B4E095958795BA95E1F70E94F1
:10527000930E811109C080910E0790910F078097BE
:1052800090930F0780930E0781E0809319078FEFAB
:105290009FEF51C08091120790911307813E3FEF1D
:1052A00093070CF44CC0029746C00E94520D86FF33
:1052B00046C01092180780911E07811140C080914E
:1052C0001A07811130C080911C0781112CC0809178
:1052D0001B07811128C060910C0770910D07685F52
:1052E0007F4FE4E075956795EA95E1F780910A07AD
:1052F00090910B070C96F4E095958795FA95E1F758
:105300000E94930E811109C080910E0790910F07A2
:10531000809690930F0780930E0781E08093190782
:1053200081E090E008C080911207909113078032CD
:1053300091052CF40296909313078093120788E04E
:105340000E94251D882309F45CC080913F078111CC
:1053500004C080912207882359F080914F07811162
:1053600050C08091220781114CC0E1E0F0E002C002
:10537000E0E0F0E064E0EE0FFF1F6A95E1F7DF0187
:10538000A65FB84F81E0D5968C93D5979091CF01C9
:10539000892790910601981BD8969C93D897809165
:1053A0000C0790910D0704969C969C938E939B9767
:1053B00080910E0790910F079C01205C3F4F409118
:1053C0001807411103C080E490E002C080E090E043
:1053D000DF01A65FB84F820F931F9E969C938E931A
:1053E0009D97411103C08CE390E002C084EC9FEFD5
:1053F000E65FF84F92AB81AB83E28093220784E6AD
:1054000087AB0E94520D83FD02C00C942034809122
:1054100022078A3110F40C94203481E080931E0717
:105420000E94520D87FF06C00E94520D84FF02C0E9
:105430000C94243484E00E94251D882309F45AC06A
:10544000209114073091150780911F072115310510
:1054500019F02D3F3F4F41F490911A07911104C06C
:1054600090911B07992311F0882391F1109219074D
:1054700010921D078823F1F00E94520D84FF03C093
:1054800010921F0737C00E94520D86FF06C0809100
:105490001807882311F40C9439340E94520D85FDAD
:1054A00002C00C942C348091180781110C9439346B
:1054B0000C942C340E94520D86FF02C00C94393497
:1054C0000E94520D85FF02C00C9439340C9446346E
:1054D00080911C0781110CC080912607882351F010
:1054E00081E080931C0710921A0780931B0702C06B
:1054F00010921C070E94520D82FD07C080911A076E
:10550000882319F081E080931D078091220788236A
:1055100019F081508093220783E397E00E94DD0F0A
:1055200083E497E00E94DD0F809117078823C9F07C
:1055300080917D0780FD06C09091160781E0892744
:1055400080931607809120078F5F813518F4809330
:10555000200707C0109220071092170781E0809360
:10556000160780911907811104C080911E078823B6
:1055700079F080917D0790917E0787709927892B1C
:1055800049F4809123078F5F83708093230702C0C3
:105590001092230720911C07809114079091150702
:1055A000211119C018161906B4F421E020931A0726
:1055B00010921B0720911D07211118C0209121076F
:1055C0002223A1F00596909315078093140721508C
:1055D000209321070BC097FF09C080911F078111FD
:1055E00005C010921A0781E080931B0760910C0799
:1055F00070910D077B0158E0E50EF11C24E0F59455
:10560000E7942A95E1F7C0900A07D0900B0786E04F
:10561000C80ED11C34E0D594C7943A95E1F7605F89
:105620007F4F44E0759567954A95E1F78C2D0E9470
:10563000930E982E809112079091130700910E07F8
:1056400010910F07080F191F55E0159507955A95EA
:10565000E1F701501109181619061CF080E090E0DE
:1056600002C08EE090E0080F191F84E015950795A1
:105670008A95E1F760910C0770910D076E5F7F4F7F
:1056800094E0759567959A95E1F7802F0E94930EA7
:10569000811110C060910C0770910D07635F7F4FFF
:1056A00014E0759567951A95E1F7802F0E94930E87
:1056B000882E02C088248394809114079091150746
:1056C000A0901007B0901107A81AB90AB5E0B594D8
:1056D000A794BA95E1F797FD03C080E090E002C07F
:1056E00081E190E0A80EB91EF4E0B594A794FA9574
:1056F000E1F780910A0790910B070296A4E0959537
:105700008795AA95E1F76A2D0E94930E81110FC02B
:1057100080910A0790910B070A96E4E0959587958A
:10572000EA95E1F76A2D0E94930EB82E02C0BB24C1
:10573000B39480911F07811138C020912407809174
:10574000140790911507222329F01816190614F052
:1057500091103CC0813AAFEF9A0714F0039702C052
:1057600080EA9FEF909315078093140780911C07A0
:10577000882361F1109215071092140760910201BD
:1057800070E080917D0790917E070E946E37892B93
:1057900029F480912607815080932607809126075F
:1057A000811114C010921C0711C080910A079091BA
:1057B0000B07019724E0959587952A95E1F76E2DC3
:1057C0000E94930E882311F40C945C34809124077A
:1057D000882399F1809114079091150718161906DE
:1057E00064F1B11002C0992041F18CE38093260747
:1057F00010921507109214071092130710921207B7
:1058000010921B0710921A0710921C0710921F0784
:10581000809110079091110755E0959587955A95BD
:10582000E1F70C9664E0959587956A95E1F7880F06
:10583000109210078093110727C080911207909152
:1058400013079C0197FF04C022273327281B390B1D
:1058500022303105ACF020917D0730917E07237016
:105860003327232B89F41816190614F4019703C063
:10587000009751F00196909313078093120704C08C
:1058800010921307109212076E2D8C2D0E94930E0A
:1058900081112CC080910A0790910B0744E09595E7
:1058A00087954A95E1F76E2D0E94930E882331F07B
:1058B00080910E0790910F07089614C080910A07F7
:1058C00090910B070B9634E0959587953A95E1F703
:1058D0006E2D0E94930E882349F080910E079091BF
:1058E0000F07089790930F0780930E0740912407A6
:1058F0008091140790911507442321F0B1100EC038
:10590000009711F12091100730911107F901E81B60
:10591000F90BF0931107E093100716C0181619063B
:105920009CF480910C0790910D07089624E09595C2
:1059300087952A95E1F7880F109210078093110739
:105940001092150710921407809112079091130777
:10595000009709F455C081100BC020910E073091BB
:105960000F07820F931F90930F0780930E0748C075
:10597000442309F445C0292F221F2227221F2093E8
:105980001807109213071092120780910A0790913E
:105990000B070696AC01407F91E0292730E0220FEB
:1059A000331F220F331FCA01820F931FB5E0880FE8
:1059B000991FBA95E1F790930F0780930E076091B6
:1059C0000C0770910D07695F7F4F14E0759567951F
:1059D0001A95E1F7802F0E94930E882389F00E9488
:1059E000520D86FD04C00E94520D85FF09C00E9421
:1059F000520D84FD05C080911907882309F473C7EF
:105A000020910E0730910F07E5E035952795EA952F
:105A1000E1F78091100790911107F5E09595879532
:105A2000FA95E1F730930B0720930A0790930D073F
:105A300080930C074091240760918901442309F465
:105A40006FC040911807411102C0ECEE01C0E4E1C3
:105A500040910607509107070E2E000CFF0BE4172C
:105A6000F5071CF44150510905C04E175F0734F487
:105A70004F5F5F4F50930707409306074091080719
:105A800050910907141615061CF44150510905C020
:105A90004115510531F04F5F5F4F50930907409317
:105AA0000807E0910207F091030740910407509125
:105AB0000507A0910807B0910907A40FB51F8A1B1D
:105AC0009B0B48979595879595958795A091060787
:105AD000B0910707AE0FBF1F2A1B3B0B2A5331099A
