:100000000C94F80B0C94200C0C94200C0C94200CE9
:100010000C94200C0C94200C0C94200C0C94200CB0
:100020000C94200C0C94200C0C9476210C94E82158
:100030000C94200C0C94200C0C94200C0C94200C90
:100040000C94200C0C94200C0C94200C0C94200C80
:100050000C94200C0C94200C0C94200C0C94EC0CA4
:100060000C94200C0C94200C0C94200C0C94200C60
:100070000C94200C0C94200C0C94200C0C94200C50
:100080000C94200C0C94200C0C94200C0C94200C40
:100090000C94200C0C94200C0C94200C0C94200C30
:1000A0000C94200C0C94200C0C94200C3726432626
:1000B0004E266A261F341F348D26A4291D3358333B
:1000C000AA33AE33F63301270327052709270E2766
:1000D000122714272027192722272227072722271C
:1000E00010278E169816A216AC16B616C016CA168B
:1000F000761874187A187A18971876189E18C90006
:1001000000000000000000000000000000000000EF
:1001100000000003000000000008000000080800C4
:10012000000C1C00201C1C00701C3E00701C3E00BB
:10013000701C1C002008080020080800FF3FFF2456
:10014000002C4916AC192E1F36FF2A03C0000000F0
:1001500000000800081000188019C06100620362E6
:1001600029640F6620660B270647FF2281C00080A6
:100170000080008008880080008081C063C707037A
:10018000FF69031F60E0010621601086212238C24A
:10019000232338C2230338E2270310E0270310800B
:1001A0000103410DC116420882BA823CC30A4313BF
:1001B000440164484416841D270059C731877A27B3
:1001C0001F17FF240100010067CC0100010067CC6C
:1001D000010001008021802F8321832F8621862F1B
:1001E0002708A9678EFF2281C080800080008018C8
:1001F0008C0080808081C063670703270C2FFF136A
:100200009B11900000880808410642024300430603
:100210002403424501460487408764FF000070F8CC
:100220000070FCFC7F06FC0F067E00E67FE0E671B6
:10023000F87670FE76F0077EFF031EFF01DE810177
:10024000C681E1F619ECF619ECF681EDF681EDF6D2
:1002500081ED86C1EDBEC1EDBE83E10080E1FF8F7F
:10026000EDFF8FFD77140A7600135512740907D13C
:100270000EAF0C4E0F4C124C0B4C05AC032B164A18
:1002800007AA05080AA803870F86116517058513B5
:100290008415A411A40F82298108FF3800000600EC
:1002A0000006310067310066310060030060022003
:1002B00040FEFF7F00000000000000000000000082
:1002C000FFC0FF3FC0FF3F00FF3F00FF2100D021E4
:1002D0000950410C2110B043034407450E86C6C6A1
:1002E00015280A904A042B02352B15918FE7FF340D
:1002F000600000600000E6008C66008C06008C0642
:1003000000C0020440FEFF7F00000000000000006B
:1003100000000000FF03FFFF03FCFF00FCFF00FCE8
:100320002107D1410B210E512117B0431444104530
:1003300009C60286CB280D904A062B02902B156524
:100340008FE9FFC1070000E001000080000000000D
:10035000000000000000000000000000000000009D
:1003600000C0010000F0070000FC1F0000F00300C7
:1003700003000000010000C00100008001000080B7
:1003800001000080260F14872C8731882A88332AA1
:10039000004E8A2A8A332B1F4CFFC1070000C00180
:1003A000000000000000000000010000000100004B
:1003B000000100030001C001000080810000818174
:1003C000000081810000010000000000000000002A
:1003D0008000000080000000800000821025002DB9
:1003E000650F251F4F870787188C0FFF010F001F10
:1003F0000F800F07808307C0C303C00701E0070118
:10040000F00181FF0101FE0101FC00007C00003CC5
:100410000000FE01801F00800FC0C003E0E003FF6A
:10042000F003FCF801FCFC00FE7E00FE3F00FF3FF5
:1004300080FFFFFFFF21172E240D6D450A26114D69
:1004400087D749168AC02B0EAD2E068D4E1550014A
:10045000530B360620FF910700F00000000000005B
:100460000000000000000000C003000001000024A4
:10047000173925006FFF051F00000300000100E091
:10048000018001000000000000001C0000000000CE
:100490000000C001000000000000001C0007000078
:1004A0000000000080030000000000000000700059
:1004B0000100000300000F000E3F0000FF030021B9
:1004C0001728451289E049022B112A4C0B8C0F8CFE
:1004D0001390B7540A371748FF2207E00080000046
:1004E000381C000000000180A7F26429250F4B068C
:1004F00007FF30000000000000C00300FC0080F88F
:1005000000F8F800F8FF00F8FFFFFFFFFFFFFFFF14
:10051000FF000000000000FF00FF7F00FE7F00FEE4
:100520007F00FE22178023158984322501258669E4
:10053000260F492B01002B16808D478D508FE8FF29
:10054000050000C0000080000080000E80071CDC59
:1005500001788E00F80700F00700F08F40F0DF60B0
:1005600030D87810D03C18D01F0CD10F06D107031B
:10057000C18301C1C1808361E00730F00710F80F2B
:1005800000F80F00FC0F00FF1F822923002B4902F7
:1005900089274B092C006BCC268C104E07CF234F9C
:1005A0000CD1085601371624FF7A000000C3C3C3DC
:1005B000C3C3C383810101000000000000000000EC
:1005C00000000000001818F0200122002667044CEB
:1005D000238E4751059440774298479A235E22BF65
:1005E000043F0738FF0AFFFFFFFFFFFF0000000086
:1005F000000000001CFBFF9FE0FF9FE00010E000F8
:1006000010E00010E0FC11F0FC11F1FC11F1C01140
:10061000F1C031F1C031F1F331F1F331F1F3010106
:10062000F00101F00101F0FFFFFFFFFFFFFF440EAB
:10063000241727A70D480B8AF18AF32B00218BE39F
:100640008DE14E0C94D195E2FF5400000000C003F0
:100650000000000000000000218421842184218406
:1006600021842184218421844182818183C107E105
:100670000FF11FF99FF88FF887F007E183C1C1835D
:1006800061861188018083C1C7E32107694802A9F7
:10069000078A868A894B0D4F0BD006D009D528577B
:1006A00003D8279A619A6E5D043D07903D08D05D9E
:1006B0002B9F439F4AFF00FFFFFF00000000000048
:1006C000C01F000707000106C04306C04306FC0721
:1006D00006FE1F0C1E3F0C1E3F1C1C1D3C1C0C2745
:1006E000380860380A6038CA203C02001C06001E28
:1006F000FCFF0FF8FF0301FE810300F8FFFFFF235B
:10070000006824174045034805490DAA164E058E7A
:100710002F51095605FF122B0080000110000061C7
:1007200006270141FF3300F0FF0000FF0700FC7FB8
:1007300000F0FF03E0FF1FE0FFF1C07F80C33F0038
:10074000C71F1EC71F33C71F83C31FFEE03F38E00C
:100750007F00F0FF01FC2100A04211443446124703
:100760000C4A052B0A33CC304E2CFF010700000148
:1007700000000000000000E0000080000080000099
:10078000008001000018001C00001C800100000017
:100790000000180000000000000000000000000041
:1007A00008C7000800001900001900381900FC19DA
:1007B00000FFFFFF2217462803234809490E8A3706
:1007C0008D2053075311540EB517360060962996A5
:1007D00033FF800300E00000000000000000000084
:1007E0000080000080001080001000001000011048
:1007F0000001300031300001300001300C01700088
:1008000001700007F8800FF8817F8CC70006FF0099
:1008100020FE007F00FF7FE0FFFFFF41022317CD96
:10082000050C28004489614F112F176150073500CE
:100830002995C1550F351722FFD5F08D14A1C88118
:10084000CFD9F1AF20005810F0F89C8E8783878EA7
:100850009CF8F00000FEFF0303030303070EFCF8FF
:100860000000FEFF0303030303070EFCF80000FF74
:10087000FF00000000000000FFFF0000FEFF838378
:10088000838383C7EE7C380000F8FC0E0703030364
:10089000070EFCF800003F7FE0C08080C0E07F3F93
:1008A000FFFF01010101010101FFFF0000FFFF0C3B
:1008B0000C0C0C1C3E77E3C100007FFFC0C0C0C021
:1008C000C0E0703F1F00001F3F70E0C0C0C0E0707C
:1008D0003F1F00007FFFC1C1C1C1C1E3773E1C00C3
:1008E000001F3F70E0C0C0C0E0703F1F000000006C
:1008F0000001FFFF010000001B1400FCFE02FAAA29
:10090000AA8A02FA4A4AFA02BAAAAAEA02BA22E26F
:100910003A82FEFC0000FFFF02FA2222FA02FA4AA3
:100920004AFA02FA4A4AB202FB8A8AF207FFFF0039
:10093000000307060606060606060606060606065F
:1009400006060606060606060703001B1400FCFE44
:1009500002FA122642FA02FAAAAA8A02FAC266C267
:10096000FA02FEFEFEFEFC0000FFFF02FA82BFBE9E
:1009700002FA8A8AFA02FA4A4AFA02FA8B8BF307D7
:10098000FFFF000003070606060606060606060623
:1009900006060606060606060606060703001010EB
:1009A0008060F804FE02FF0101FF02FE04F860808F
:1009B000FF00FF00FF00FF090DFF00FF00FF00FF29
:1009C00010101F111111F1111111111F111111F13D
:1009D0001111111F11111111F11111111F1111110B
:1009E00011F1EFEF0FEFEFEFEFEFE0EFEFEFEFEFE2
:1009F000EFEF7B7B787B7B7B7B7B7B7B7B7B7B7B62
:100A0000037BEFEF1DEBEF6FEFE7E0EFEF8FCFEF43
:100A1000EFEE5B7B7C7B7B537F7B5B7B7B7B7B71AC
:100A2000017B7F05FF0B3DDF251D4BBD775B2FFD58
:100A30002E05168029008008408050010048802142
:100A40008011FE01390505050101010101010101C6
:100A500001FE7F80808080808080808080A0A09840
:100A6000807FF4E7EFDF33F9FCFE7EBEBDB33F4F7E
:100A7000E7F73FCFF7FBFAF7C93EFFFFFF3FDFEE97
:100A8000ECD37CBBC7F7C7BB7C7F7CBBC7F7C7BBBE
:100A90007C7F3CDBE7F7E7DB3CBF3CDBE7F7E7DBF2
:100AA0003CBF7E5BDFFD5D77DDFFEFFD7FFFFEFD81
:100AB000F9FF53AA410D353F7F7FFFDFFF7FFF7FA7
:100AC0003DAFFE01010101010101010105050539EB
:100AD00001FE7F8098A0A0808080808080808080C0
:100AE000807F8C190C8760535451D214E502E4279F
:100AF000A0C7A3008E151D110FC827D21320C0094F
:100B00001332E0F8FCFEFE7F3F7FEFC6C6ECF8E054
:100B10000000071F3F7F7E7C3C1E1F3F5CAED76AF4
:100B20003418000000000000000000000000100069
:100B3000000000000008000000000000800000002D
:100B4000000000000200000008000000000000009B
:100B50000000000000000000000000200000000075
:100B6000040000000002000100000000000000007E
:100B70000000000000000000000000000002000073
:100B8000000003030306032218FE0379FDFD85B56B
:100B9000F57103F9FD3535FDF903F9FD0DFDF90D8D
:100BA000FDF90379FDD5D5DD5903FEFF017E7E1ADF
:100BB0001A1E0C707E1A1A7E7C027E60607E3E4099
:100BC0006E6E7676200C7E6A6A6E2C01FF0103023F
:100BD00002020303030202020202020302020202F1
:100BE00003020202020202030202020202030120C5
:100BF00008FFFFC0C0073FF8C0F83F0700FFFFC075
:100C0000C00000007FFFE0E0FF7F00FFFF1B1B1F15
:100C10000E2508E0F87E33337EF8E000FFFF3373E3
:100C2000FFCE00FCFF071E07FFFC007EFFC3C3FFD3
:100C30007E00FFFF3373FFCE1C083FFFE07CE0FF28
:100C40003F00FFFF00FFFF1E3CFFFF007EFFC3D7FA
:100C50007600CEDFFB731508FFFF1B1B0300FFFFB1
:100C600000FFFF3373FFCE00FFFFDBDBC31A087307
:100C7000F3C3FF7E007FFFE0FF7F00FFFF0E1C0E2F
:100C8000FFFF00FFFF1B1B1F0E0D10150B2614A8E6
:100C90005020203E41027C80F1F2F4F4FEFDF5F597
:100CA000E0E0F0FCF30708040810204102045610AD
:100CB00007FBFDFDFD7BFFFF0FF7F7F70FFFFF07BA
:100CC000EFF7F70FFFFF0FB7B7B7C3FFFF07EFF758
:100CD000FF6FB7B7B70FFFF701F7FFFF07FFFFFF82
:100CE00007FFFF01FFFF6FB7B7B70FFFF701F7FF70
:100CF000FF05FFFF0FF7F7F70FFFFF07EFF7F70FFE
:100D0000FFFFFFFFFF01FEFCFDFDFDFEFFFFFEFDFF
:100D1000FDFDFEFFFFFCFFFFFFFCFFFFF1F6F6F617
:100D2000F2F9FFFCFFFFFFFEFDFDFEFCFFFFFEFDF5
:100D3000FDFFFEFDFDFEFCFFFFFCFFFFFEFDFDFED7
:100D4000FCFFFFFEFDFDFFFCFFFFFEFDFDFDFEFFC6
:100D5000FFFCFFFFFFFCFFFFFFFFFFFD80400000E7
:100D60000000000000000000000000000000000083
:100D7000000080C040602030109848280C86F23A6D
:100D80000F0703010100000000000000000000C088
:100D90002090D0781808000000000000000000003B
:100DA00000000000081838F070E0C00000000000EB
:100DB0000000000000010103070F3AF2860C2848EA
:100DC000981030206040C08000000000000000004B
:100DD0000000000000000000000000000000000013
:100DE000000000000000000080C06030188C462227
:100DF000134120084422910008044005107CC300E0
:100E000000000000000000000000000000001F20A3
:100E10004083473E0C08A4A422428202022A824A4E
:100E200022A2A4040C1462C1F0793F0F000000005C
:100E30000000000000000000000000C37C1005401E
:100E40000408009122440820411322468C18306087
:100E5000C080000000000000000000000000000052
:100E600000000080E0F84C06431008041100004226
:100E70000118060110000400000000080000010F26
:100E80001C3060C080000000000000000000000076
:100E9000FE01000000070F1F111E0C0100010C1EB7
:100EA000111F0F87104108C13F0000000000000023
:100EB000000000000080C060301C0F01000008002E
:100EC00000000004001004491061820000110408B1
:100ED0001043060C38E08000000000000000000015
:100EE000E078BE2B8110442108048108C01C020058
:100EF000004100000060000100000020000000022E
:100F000000000080C14163269434541C28582808EE
:100F1000510E583060800C1C383830313031303848
:100F2000181C8C4024180F11A8082818B05838A88D
:100F30006CC48603010100000000020000000000F4
:100F4000000001000000400001220419608000211F
:100F5000000001041020030C38E000000000FC5FDA
:100F6000358B64100026000E0100B8068100004099
:100F7000890000000000030008000080C124203028
:100F80002C2623418040201010080C0404F8800017
:100F9000000100000000010202024202A2024222FD
:100FA0008151009040A550F80C04080810102162EF
:100FB000C14422252234283060C080000000000097
:100FC00000800200000480200000020000200228AF
:100FD000000240000440118410810F38C0007F25BA
:100FE00012181210314088010410048080E0F0785B
:100FF000389CDCDE9E3EFEFEFE7E7E7FF8FCF078B6
:10100000FE70F81EFF7E7EFEFEFEFE7E7E7EFFFEF2
:101010007EFEFEFE7EFE1EFEFEFE7E7E7EFEFFFE4F
:101020001EFFFEFE7F7EFFFEFEFEFE7E3E9EDEDF9C
:101030009E3E78F0FE70F8FEF078FFFE7E7E7EFE2B
:10104000FFFE7F7FFEFE7E1E7FFEFCF8316040C10A
:101050008411C0E2100C040406040908113E0000CB
:10106000000000000000031F0806030101FFFFF05D
:10107000E0CFDFDDEDC1FFFFE6DBDBEBC0FFFFC054
:10108000FEFFFFC0DEDFDFE0FFFFE0DFDFDFE0FFCE
:101090007CB1C7F1FCFFC0FFFFE0DBDBDBE8FFFF5B
:1010A000FEFFFFECDBDBE6FFFFFFFFF0E7CF9F9FDC
:1010B0002F6770FFFFE0DFDFEFC0FFE0DBDBDBE887
:1010C000FFECDBDBE6FFFFE0DFFFFFFF00000000DF
:1010D0000102070000000000000000000000000006
:1010E00000000000000000000000000000073F7F3B
:1010F000FFFFC3D7EFBFA7CFE7FFFFFFC399BDBD7A
:10110000BDCFA7A7FBDFAF83FF8FF7FF8BFFCFB765
:10111000B7FFFFFFFFFFFFBF87F3C7F387BFFFCF17
:10112000A78FBFFF8FF7FFEF87EFFF8BFF87F78F4B
:10113000FFFFFFFFFFFFFFFFFFFFFFFFFFFFFFFFBF
:10114000FFFFFFFFFFFF7F7F3F3F1F030000000007
:1011500000000000000000000000000000000C1073
:101160000000001C7ABFBF7A1C000000E0388E83AC
:1011700000000000838E38E000001C72AF8210BDBA
:10118000721C00005028C78060142A4080C7285075
:101190000000001C7EFFFF7E1C000000E0F8FEFF48
:1011A000FFFFFFFFFFFEF8E0161800000000000040
:1011B0000000000000F01C2607261CF000000000C4
:1011C000040A110A04040E1E3C1E0FF7F7E6DCBAEF
:1011D0007B777F3E0C04000000000000000080E0F0
:1011E0007FBFC77FBF7FCFBF7FE0800000000000D0
:1011F000F01C2607261CF000000000000000000084
:101200000000040C3E7F777BBADCE6F7F70F1E3C4C
:101210001E0E04040A110A040080E07FBFCF7FBFC6
:101220007FC7BF7FE08000000000000000001118B1
:10123000000000F01C2607261CF00000040AF10A3A
:10124000047EFFC70FFFFEFCFEFBF70F1E3C0EFFE8
:10125000030080C379BECF7FBF7FC7BF7EE0800021
:10126000FF000050F8D08000FC0269616902FC00B8
:1012700080D0F850000103071EBDEB3E9CFE5BFDD5
:101280001E07030100001030985B0D873C0B1F40C8
:101290000D1F385010000D100080F8FCFEFFFFFFFE
:1012A000FEFCF88000FFFFFFFFFFFFFFFFFFFFFFD7
:1012B000FFFF1010102066F4DC98BCFFFEBC98D82D
:1012C000FC6240200603311B1F0F19B979191F3723
:1012D000630306008042EEFCD898BCFEFFBD98D8A0
:1012E000FC6E2020080C46673F0F193979B91F178B
:1012F00033664402002060F4F8B89CFEFE9CB8F807
:10130000F4C08000000402170F0B1D1D3D1D1B0FB4
:10131000070800000A080E172F7EFC7E3D190E00FC
:101320000C1078F466EE7EEE66F6FCF870000001B4
:1013300002041E344E1F374C182078F466EE7EEE01
:1013400066F6FCF87000000103364F061F77074C65
:1013500038000070F8FCF666EE7EEE66F478201831
:101360004C371F4E341E040201000070F8FCF66674
:10137000EE7EEE66F47800384C07771F064F360392
:10138000010000F8D4EC56FE7E56ECD4F800102094
:10139000331E8CCC7E041E3320100A080F1C183E0E
:1013A0007C7C3E181C0FF038183E7C7C3E1838F0D0
:1013B000304810163C3C3A1009060808FF693232E2
:1013C00014140808C0B08CC3BCF0C08010102828CA
:1013D0004C4C96FF01030F3DC3310D03080800007C
:1013E00000184C4E6AFFFF6A4E4C180000002D108A
:1013F000FFFF017D454545017D45457D017D091185
:10140000217D01057D0501457D45017D0911217D78
:10141000017D41417D017D55554501FFFFFF80AEB6
:10142000AAAABA80BE9292BE809EB0B09E80BEAA8A
:10143000AAA280889C8880BEA292AE80BEA0A0BED8
:1014400080A2BEA28082BE8280FF2218FE0379FDA8
:10145000FD85B5F57103F9FD3535FDF903F9FD0D90
:10146000FDF90DFDF90379FDD5D5DD5903FEFF0129
:101470003C7E7E7E7E663C001E3E7060703E1E009E
:101480003C7E7E6A6A6E2C007E7E1A3E7E6C01FF78
:10149000010302020202020202030202020202022B
:1014A0000302020202020203020202020302020219
:1014B00003011C10000000C0388E031C30204000C7
:1014C00000000000004020301C038E38C0000000E7
:1014D00000000603010001020204020000000000F7
:1014E000000204020201000103060000C03008846B
:1014F00082418204182040000000000000402018B3
:1015000004824182840830C007020100000000010B
:1015100002040200000000000002040201000000BA
:1015200000010207000000000000E01C033C400036
:101530000000000000403C031CE000000000000030
:1015400000000000000E0301020402000000000081
:101550000002040201030E00000000000C10E01065
:1015600088D06103BEFABA7FC3810F040394E0FF01
:10157000FFCF83000000CA8C98B0F1E3FEFA3A7FF7
:10158000C381AF4767331B0F0703000000000080D3
:10159000808081DBFEBA3A7FC38187C5F0B11B1F13
:1015A0001F1BB1F3C68481C37FBAFABE0361D08822
:1015B00010E000000083CFFFFFE09403040F81C31D
:1015C0007F3AFAFEE3F1B0988CCA000000000307EE
:1015D0000F1B336747AF81C37F3ABAFEC381808058
:1015E000800084C6F3B11B1F1F1BB1F0C5870C1010
:1015F000E01088D1633EBEFA9A1C18000F040384E1
:10160000F8E3F7CF83000000C02010A2467CFCF472
:10161000B43830001F48C7E1BE3C19ABF36A241050
:10162000E01088D1633EBEFA9A1C18000F040384B0
:10163000F8E3F7CF83000000C02010A2C67C7CF442
:10164000B43830001F48D7E1B82C1EBFF36020101B
:101650000088C4C4DEFAFDCFE770381E0781E0F8C9
:101660001F07071FF8E0800000808286BCFCF4B4EE
:10167000B8B0800087C5F0B11B1F1F1BB1F0C58734
:10168000CA8C98B0F2E6FEFCF4743830AF4767338A
:101690001B0F07030000000000181C9AFABE3E63EF
:1016A000D18810E000000083CFF7E3F88403040F33
:1016B000003038B4F4FC7C46A21020C010246AF339
:1016C000AB193CBEE1C7481F00181C9AFABE3E6326
:1016D000D18810E000000083CFF7E3F88403040F03
:1016E000003038B4F47C7CC6A21020C0102060F317
:1016F000BF1E2CB8E1D7481F1E3870E7CFFDFADEB9
:10170000C4C488000080E0F81F07071FF8E08107C5
:101710000080B0B8B4F4FCBC8682800087C5F0B10C
:101720001B1F1F1BB1F0C587303874F4FCFEE6F2B6
:10173000B0988CCA0000000003070F1B336747AF47
:10174000F0F8F9F3FFFFFFFFFF3E3C381F0F87C3A0
:10175000E3FFFFFFEFC78000383C3EFFFFFFFFFFC6
:10176000F3F9F8F00080C7EFFFFFFFE3C3870F1F17
:101770000102040810204080080B00020202010050
:1017800009040000010202000005240010010524E4
:101790000101010424020605240600010705810356
:1017A00010004009040100020A00000007050202BF
:1017B00040000007058302400000040309041201F1
:1017C0000002EF02014041233680000101020301C3
:1017D00041726475696E6F204C4C430041726475B0
:1017E000696E6F204C656F6E6172646F0000013529
:1017F00011241FBECFEFDAE0DEBFCDBF11E0A0E0C5
:10180000B1E0E8E6FFE602C005900D92AA37B10705
:10181000D9F727E0AAE7B1E001C01D92A63EB207C2
:10182000E1F71BE0C8EFDBE004C02197FE010E9456
:10183000A737C73FD107C9F70E9453240C94B2378A
:101840000C940000CF92DF92EF92FF920F931F93C0
:10185000CF93DF936C017A018B01C0E0D0E0CE150D
:10186000DF0589F0D8016D918D01D601ED91FC91D4
:101870000190F081E02DC6010995892B11F47E01BC
:1018800002C02196ECCFC701DF91CF911F910F913C
:10189000FF90EF90DF90CF9008950895089580E035
:1018A00090E008950E94AD37CF92DF92EF92FF92C1
:1018B0000F931F93CF93DF938C016A017B01FC018F
:1018C000D485DD2309F1C785CE5FC230E8F0F80189
:1018D000878590E002962C2F30E08217930729F03D
:1018E0002091B8012695217001C02D2FF801628149
:1018F00073816E197F09808191818C199D094C2F0C
:101900000E94C11EC150E1CFDF91CF911F910F9175
:10191000FF90EF90DF90CF9008953FB7F8948091BB
:10192000BF019091C001A091C101B091C20126B543
:10193000A89B05C02F3F19F00196A11DB11D3FBF07
:10194000BA2FA92F982F8827820F911DA11DB11D95
:10195000BC01CD0142E0660F771F881F991F4A9591
:10196000D1F708958F929F92AF92BF92CF92DF925C
:10197000EF92FF926B017C010E948D0C4B015C0188
:10198000C114D104E104F104F1F00E948D0CDC01DA
:10199000CB0188199909AA09BB09883E9340A10582
:1019A000B10570F321E0C21AD108E108F10888EE10
:1019B000880E83E0981EA11CB11CC114D104E1045F
:1019C000F10419F7DDCFFF90EF90DF90CF90BF903B
:1019D000AF909F908F9008951F920F920FB60F9225
:1019E00011242F933F938F939F93AF93BF93809135
:1019F0007A0190917B01A0917C01B0917D013091A1
:101A0000BE0123E0230F2D3720F40196A11DB11D47
:101A100005C026E8230F0296A11DB11D2093BE012B
:101A200080937A0190937B01A0937C01B0937D0118
:101A30008091BF019091C001A091C101B091C201FC
:101A40000196A11DB11D8093BF019093C001A09389
:101A5000C101B093C201BF91AF919F918F913F910E
:101A60002F910F900FBE0F901F9018950F930AEFB4
:101A70000E943D1B0F9108950F930BEF0E943D1B99
:101A80000F9108950F9302E00E943D1B0F9108955E
:101A9000BC0180E090E00C94B20C8FB12CB193B1FA
:101AA00030E02095309520743327A90123E0559527
:101AB00047952A95E1F7292F30E020953095207140
:101AC00033273595279535952795242B8095807F4D
:101AD000822B089560387105D0F440345105B8F474
:101AE000E0E7F7E180E1849FD001A0781124A60F00
:101AF0004770E40FF11D8491AA53BE4F222319F0C1
:101B00006C91862B03C080956C9186238C930895ED
:101B1000823079F018F4813031F00895843079F012
:101B2000883099F0089580910401865F80930401C4
:101B30000895809106018F5F80930601089580913A
:101B400002018F5F809302010895809105018F5FEC
:101B500080930501089580911A07882361F01092FF
:101B6000120710921507815080931A0781E0809325
:101B70000D071092160708950F931F93CF93DF93CD
:101B80004091F8065091F9066091FA067091FB06B3
:101B900089E297E00E94540C4091F8065091F906B2
:101BA0006091FA067091FB0689E397E00E94540C5D
:101BB00000910007109101078091F8069091F906B5
:101BC000081B190BC0910207D09103078091FA06F8
:101BD0009091FB06C81BD90BCD37D10534F180910C
:101BE000B801863010F10E94AB0D81E080930D07A3
:101BF00086E08093BB0180911A07811116C0809105
:101C0000050180931A0780911B07815080931B0761
:101C1000811106C01092B8018AE08093BB0105C013
:101C20008091B7018F5F8093B70120911407909145
:101C300011073091150780910E0721113CC0692FC3
:101C400040911007911108C020911207211104C082
:101C5000311102C04423E1F02091190774E0479F3D
:101C6000A0011124911102C060911207932F990FC6
:101C7000390F330F97E0899F300D1124320FCA01BD
:101C800025E0629F800D911D1124232F280F10C085
:101C90002EE0280F4EEE55E1BE01C8010E943C0D1A
:101CA00080910E072091190777E0879F200D11245E
:101CB0004EEE55E10CC0282F220F280F911102C0C3
:101CC00090911207230F990F290F4CE555E1BE01A2
:101CD000C8010E94360D80911207882331F02091AF
:101CE000B80122FB222720F909C080911007811139
:101CF00004C080911107882361F022E042EB54E197
:101D0000BE01C8010897DF91CF911F910F910C94EC
:101D1000360DDF91CF911F910F91089587FD43C03C
:101D2000282F082E000C330B4091000150E024179F
:101D30003507CCF567FD09C0062E000C770BE09146
:101D40000301F0E06E177F071CF080917F0108957A
:101D5000A091BA01B0E0AA0FBB1FA95EBE4FE3E09D
:101D600055954795EA95E1F7649FF001659FF00D61
:101D7000749FF00D1124319693E0359527959A952F
:101D8000E1F72E0F3F1FED91FC91E20FF31FE4915D
:101D9000F0E087709F0102C0359527958A95E2F79C
:101DA000C9018170089581E008959091BA01E7EC2E
:101DB000F5E020E030E040814423A1F0DF011197FD
:101DC0004C9149130FC0882319F0108280E00AC09B
:101DD000F901EE0FFF1F2E0F3F1FF901EA53FA4FD3
:101DE000828108952F5F3F4F33962A30310519F7CE
:101DF00080E008950F931F93ECE2F6E0A0E0B0E0DE
:101E00005081511120C09C0184E0220F331F8A951C
:101E1000E1F75CE05A9FF0015B9FF00D1124EF5D4C
:101E2000F94F8B0194E0000F111F9A95E1F7118390
:101E300000833383228381E083874187442341F0F9
:101E400083E1828705C011963C96A630B105C1F6A4
:101E50001F910F91089520919706211119C0AB0190
:101E600024E0440F551F2A95E1F79C0164E0220FFE
:101E7000331F6A95E1F73093960620939506CA01C1
:101E80000296909394068093930681E08093970640
:101E90000895CF92DF92EF92FF926B017C018091C7
:101EA000B60181111BC08091B80190E02091C5015D
:101EB00030E0B9016A5F7F4F0E949337892B71F43C
:101EC000B60184E0759567958A95E1F7C70124E02E
:101ED000959587952A95E1F70E942B0FFF90EF903B
:101EE000DF90CF900895CF93DF93109294061092D5
:101EF000930610929606109295061092970695E01A
:101F0000C9E040E150E061E0D6E0B7E0A3E07CE06A
:101F1000292F30E08823E1F0C29FF001C39FF00D2C
:101F20001124E058FE4F11821082138212825583D1
:101F30004483578346836087D29FF001D39FF00D7F
:101F40001124E350FA4F11821082138212821582FB
:101F5000B29FF001B39FF00D1124E759F94F1182A0
:101F60001082138212821682A5836483729FF0010D
:101F7000739FF00D1124EF5DF94F118210821382CF
:101F800012821582148217821682138672876087E6
:101F9000E4E0220F331FEA95E1F7F901E856F94F23
:101FA0001486915008F0B4CF1092F6051092F50502
:101FB0001092F8051092F7051092F9058EE18093C2
:101FC000FB051092FC051092EE051092ED051092A3
:101FD000F0051092EF051092F20584E68093F30568
:101FE00080E58093F1051092F4051092E5051092BA
:101FF000E4051092E7051092E60581E08093E8057C
:1020000082E08093EA0588EC8093EB0583E280937D
:10201000E9051092EC05DF91CF9108951092B60179
:10202000E0E0F7E083E0828F838F91E090930201FC
:102030002EE12093040190930601809305010895F9
:102040000F931F93CF93DF93EC018C85882309F4C2
:1020500053C08E8581508E87811102C01C864CC072
:10206000888599850C811D81080F191F65E01595DC
:1020700007956A95E1F702501109181619061CF028
:1020800020E030E002C024E030E0020F131F44E003
:10209000159507954A95E1F76A817B816F5F7F4FC0
:1020A00054E0759567955A95E1F7802F0E948E0E42
:1020B000811120C06A817B816D5F7F4F34E075950F
:1020C00067953A95E1F7802F0E948E0E811112C01C
:1020D0002C813D8188859985820F931F9D838C83F8
:1020E0008C819D8125E0959587952A95E1F79983C7
:1020F000888302C01C86F4CFDF91CF911F910F918E
:102100000895FF920F931F93CF93DF93082FC62F4D
:1021100080E10E94E31D882319F081E080937E0115
:1021200080E80E94E31D811110927E01D0E010E052
:1021300080917E0199E0F92EBE01F89E600D711D1F
:10214000112421E043E0C8010E94EE1D80917E0130
:10215000BE01F89E600D711D112420E041E0C80110
:10216000DF91CF911F910F91FF900C94EE1DFF9284
:102170000F931F93CF93DF9320E04CE55DE060E089
:1021800070E080E090E00E94360D8091BD018823D0
:1021900009F46FC0C0E1D0E021E043E16CE270E0FF
:1021A000CE010E94111B2196CB36D105A9F720E064
:1021B0004EEA5CE06DE270E082E190E00E94420D48
:1021C0008091B8018F5F8093B801893F48F020E08B
:1021D00045EA5CE06EE070E087E390E00E94420D2B
:1021E0008091C501882371F08091B8018A50873DA4
:1021F00048F020E049E85CE06DE170E081E590E0C6
:102200000E94420D8091B70165E00E947337F82E5D
:10221000C2E1D0E010E01F1571F0AE01475F5F4FE3
:1022200000E02AE330E06FE370E0CE010E945C1D25
:102230001F5F2A96F0CFC1E0D5E08091B70190E012
:102240002C2F30E082179307A4F08C2F6D2F0E9463
:102250007337992361F0220F331FC901419600E0C3
:102260002FE330E0AC016AE370E00E945C1DCF5FB9
:10227000E4CFDF91CF911F910F91FF900895AF921E
:10228000BF92CF92DF92EF92FF920F931F93CF9363
:10229000DF93CDB7DEB760970FB6F894DEBF0FBE01
:1022A000CDBF29833A834B835C836D837E838F8389
:1022B0009887A986BA86CB86DC86ED86FE860F8750
:1022C000188BE981FA816B817C81A985BA852B8580
:1022D0003C854D815E814E0F5F1FA417B507B4F496
:1022E0008D859E858A0F9B1FE817F9077CF48F81E7
:1022F0009885860F971F2817390744F48F8598898A
:10230000280F391F81E0621773070CF080E0609698
:102310000FB6F894DEBF0FBECDBFDF91CF911F91F6
:102320000F91FF90EF90DF90CF90BF90AF90089506
:10233000AF92BF92CF92DF92EF92FF920F931F93D3
:10234000CF93DF93CDB7DEB760970FB6F894DEBFBB
:102350000FBECDBFA22EC42EE62EE0910601F0E006
:1023600020E1029FD0011124A050B94F99960D9100
:102370001C919A970E1B1F0B202F1A8309839B9683
:102380000D90BC91A02DAE1BBF0B4A2FBC83AB831D
:102390003196EE0FFF1F6E2FFE83ED83F887EF83DC
:1023A000B32ED52EF72E8C013A815C817E818E2F43
:1023B00098850E943F1160960FB6F894DEBF0FBE5D
:1023C000CDBFDF91CF911F910F91FF90EF90DF90E4
:1023D000CF90BF90AF9008952F923F924F925F920F
:1023E0006F927F928F929F92AF92BF92CF92DF9225
:1023F000EF92FF920F931F93CF93DF93CDB7DEB78A
:10240000AA970FB6F894DEBF0FBECDBF55E0752E6C
:1024100066E0662E76E9872E912C33243394E4E629
:102420004E2EF9E05F2EE72CF12C6E9CD0016F9CB4
:10243000B00D1124A350BA4F15968C91159788238F
:1024400009F467C012966D917C9113978091FA06FA
:102450009091FB06681B790B8D919C911197E091EF
:10246000F806F091F90614962C914CED53E18E1B71
:102470009F0B0E94420D8091730790917407B401E5
:102480000E947F37009709F044C0E4EAF6E020811B
:10249000211139C024E0880F991F2A95E1F7DC014A
:1024A000A856B94F1C963C921C971F961C921F97DA
:1024B0006E9CF0016F9CF00D1124E350FA4F2281C5
:1024C00033812B5F3F4F13963C932E9312972081BD
:1024D00031812A5F3F4F45E0220F331F4A95E1F7D4
:1024E00015963C932E9314972481211103C024EC5C
:1024F0003FEF02C02CE330E0FC01E856F94F318792
:102500002087468606C0019670968630910509F0B0
:10251000BECF5E9C80015F9C100D112400581E4FA1
:10252000780128E0E20EF11CD80118962C9122FDCA
:1025300034C07A94BFEF7B1276CFEFE6F6E0F9A7CE
:10254000E8A709E6202E06E0302E28E936E03D8F88
:102550002C8F8CE296E09DA38CA381E2482E86E02E
:10256000582EA9E2B6E0BBA3AAA3EBE2F6E0F98FEE
:10257000E88F2EE636E03B8F2A8F8DE696E09F8B24
:102580008E8B1F8E1E8E1D8ADE011996BA8BA98B2B
:10259000FE013196FC8BEB8B0EC1F801C080D1801F
:1025A0008091F8069091F906C81AD90AA280B380E2
:1025B0008091FA069091FB06A81AB90A23704AEB9B
:1025C00053E1B501C6010E94420DD80118968C91C5
:1025D00038E080FF03C00C5F1F4F19C00A5F1F4F18
:1025E000632F70E0D8018D919C916817790708F0EE
:1025F000A0CFF701208123706A0D7B1D4AEB53E1C8
:10260000C6013AA70E94420D3AA5385FE9CF832F51
:1026100090E0D8014D915C918417950708F089CF1F
:10262000F701208123704AEB53E1B5018C0D9D1D0C
:102630003AA70E94420D3AA5385FE9CFBD89BF5F36
:10264000BD8B8091730780FFBDC0AA8DBB8D8C911F
:1026500018160CF0C4C02091B80122FB222720F9E3
:10266000F101628173818091FA069091FB06681BEB
:10267000790B80819181E091F806F091F9064AE9A1
:1026800053E18E1B9F0B0E94360DD10112964D9186
:102690005C9113978091FA069091FB06481B590BA9
:1026A0004D5F5F4F6D917C918091F8069091F90696
:1026B000681B790BEE89FF89808181118AC083E0D4
:1026C00090E0680F791F20E080E797E00E946A0D94
:1026D000D10112964D915C9113978091FA069091D9
:1026E000FB06481B590B4D5F5F4F6D917C918091AC
:1026F000F8069091F906681B790BEE89FF898081B5
:1027000081116AC085E090E0680F791F20E080E7C2
:1027100097E00E946A0DACA1BDA18C91811197C078
:10272000AC8DBD8D1C968C911C97882379F0CD01C2
:102730000E9420104091F8065091F9066091FA0627
:102740007091FB068C8D9D8D0E94540CEE8DFF8D3B
:102750003196FF8FEE8F28A539A5295F3F4F39A706
:1027600028A737E0230E311C8C8D9D8D40969D8FC0
:102770008C8FACA1BDA11C96BDA3ACA3BCE04B0E3D
:10278000511CEAA1FBA13C96FBA3EAA3288D398D3D
:10279000245F3F4F398F288F8A8D9B8D07969B8FA3
:1027A0008A8FAE89BF891796BF8BAE8BEE8DFF8D5A
:1027B000369709F445C1A8A5B9A58C91882309F4D9
:1027C000AACF3CCFEA8DFB8D808118160CF48DC505
:1027D0003CCF84E090E075CF86E090E095CF8150CB
:1027E000AA8DBB8D8C938091730780FD16C0F1017B
:1027F000628173818091FA069091FB06681B790BC8
:1028000080819181E091F806F091F90622E04AE991
:1028100053E18E1B9F0B0E94360DAA8DBB8D8C91B0
:10282000823E0CF078CFE8A5F9A5108287E02E8DC6
:102830003F8D829FF001839FF00D1124E759F94FDE
:1028400060817181828193810E94490F64CFBD892B
:10285000BF5FBD8B88E0E989FA89282F11922A95FC
:10286000E9F734E63D871E8696E49F87188AD201F1
:102870008D909C9011979A86898612966D907C9087
:1028800013977C866B86EB89FC8911928A95E9F710
:1028900064E63D831E829F83188620910007309155
:1028A000010739A328A328A188A199A19A83898324
:1028B000A0910207B0910307BFA3AEA34EA1BC83B2
:1028C000AB83A984BA84CB84DC84ED84FE840F8539
:1028D00018893A815C8170E086E490E00E943F11A3
:1028E000882309F1E88DF98D80811816E4F4809130
:1028F000B801982F9770943009F431C5982F9173CF
:10290000903109F42CC5982F9F73973109F427C58E
:10291000809173079091740766E970E00E947F3799
:10292000009709F462C5D20112960D911C9113977C
:102930008091FA069091FB06081B190B0D5F1F4F43
:102940002D913C918091F8069091F906281B390B46
:102950007901BFEFEB1AFB0A6901EBE0CE0ED11C47
:10296000EC14FD0451F020E047E0B801C7010E94DB
:10297000111BFFEFEF1AFF0AF3CFA88DB98D8C91D1
:10298000181624F5EAA1FBA12081220F9091B8012D
:10299000907681E0903409F080E0280FD201129601
:1029A0006D917C9113978091FA069091FB06681BBC
:1029B000790B8D919C91E091F806F091F90640E237
:1029C00053E18E1B9F0B0E94360DAACE8150E88DDD
:1029D000F98D80838091730780FD18C0D201129613
:1029E0006D917C9113978091FA069091FB06681B7C
:1029F000790B8D919C91E091F806F091F90624E015
:102A000040E253E18E1B9F0B0E94360DE88DF98D3D
:102A10008081823E0CF084CEACA1BDA11C928CE0E2
:102A20002E8D3F8D829FF001839FF00D1124EF5D6D
:102A3000F94F60817181828193810E94490F70CE2C
:102A4000809197068823C9F060919506709196064B
:102A50008091FA069091FB06681B790B8091930692
:102A600090919406E091F806F091F90620E044E197
:102A700053E18E1B9F0B0E94420D8091FC05882321
:102A800009F4ECC0FD89FF5FFD8B8091FB051816F2
:102A90000CF097C08091B80163E00E9473379111E8
:102AA00090C02091F90530E0F901E55BFE4F4081CF
:102AB0008091F5059091F605840F911D47FD9A953B
:102AC0009093F6058093F505F9013496EF70FF2792
:102AD000E55BFE4F20816091F7057091F805620F6C
:102AE000711D27FD7A957093F8056093F70568507E
:102AF0007109E4E075956795EA95E1F70897F4E0C8
:102B000095958795FA95E1F70E948E0E882361F1DD
:102B10008091F90590E008968F7099278093F905C8
:102B2000FC01E55BFE4F40812091F5053091F605F3
:102B3000240F311D47FD3A953093F6052093F50596
:102B4000FC013496EF70FF27E55BFE4F20818091FA
:102B5000F7059091F805820F911D27FD9A959093A6
:102B6000F8058093F70513C00E94EC3624E630E0A8
:102B700040E050E00E9410376530710581059105F5
:102B800034F49091FA0581E089278093FA058091C9
:102B9000B80169E00E947337911113C09091FA0552
:102BA0008091F905992331F08F5F803140F01092C8
:102BB000F90507C0882311F0815001C08FE0809390
:102BC000F9058091FB05181604F52091B8012695AA
:102BD00021706091F7057091F80568507109809136
:102BE000FA069091FB06681B790B8091F505909190
:102BF000F6050897E091F806F091F90642EB52E1EC
:102C00008E1B9F0B0E94360D29C081508093FB05BF
:102C10008091730780FD1CC06091F7057091F805E5
:102C2000685071098091FA069091FB06681B790B38
:102C30008091F5059091F6050897E091F806F091DE
:102C4000F90622E042EB52E18E1B9F0B0E94360DEB
:102C50008091FB05823E14F41092FC058091F405EE
:102C6000882309F416C2E090ED05F090EE05BB2430
:102C7000B3948091000790910107E816F9060CF0D3
:102C8000B12C2D892F5F2D8B8091F10518160CF03A
:102C900075C18091F30581508093F305811186C041
:102CA0000E94EC361091F205212F287329F0177C31
:102CB0001093F20582E30EC024E630E040E050E0DD
:102CC0000E941037643148F416FD09C01064109357
:102CD000F20584E68093F30551C1683220F417FDB4
:102CE00002C01068F4CF80E58093F3050E94EC36B3
:102CF0002CE330E040E050E00E941037862F4091F6
:102D0000F205E42FE7704E2F50E04730510508F0F0
:102D100035C1FA01EF58FF4F0C94A7376AE00E94C3
:102D200073378F5F98E0899F90011124822B3BC0FD
:102D3000643110F483E237C0683210F480E133C0AC
:102D40008EE231C0643110F48CE12DC0683210F491
:102D500088E029C085E327C0643110F484E123C0F2
:102D6000683210F488E21FC081E31DC0643110F4A2
:102D70008BE019C0683210F480E315C08AE213C0FA
:102D8000643110F482E20FC0683210F488E10BC0A5
:102D90008EE009C0643110F485E105C0683210F49A
:102DA00080E201C089E18093F205E8C09091F205CC
:102DB00097FF8AC08A3508F087C08091F806909105
:102DC000F906E81AF90AA5E0BA9EE00CF11C1124F4
:102DD000C090EF05D090F0058091FA069091FB0627
:102DE000C81AD90AB9E0CB0ED11C1091B8011095C0
:102DF00011701E8B64E1A62E7AE0472E512C612CB7
:102E0000712CBB2019F001E010E002C00FEF1FEFA2
:102E10000E94EC36A30192010E941037DC01CB0125
:102E20000496A11DB11D089F9001099F300D189FA8
:102E3000300D112419012E0C3F1CEE89E11103C045
:102E400001E010E002C00FEF1FEF0E94EC3624E01B
:102E500030E040E050E00E941037DC01CB010296E8
:102E6000A11DB11D089F4001099F900C189F900C57
:102E700011248C0C9D1C01E09401A101B601C70135
:102E80000E945C1D81E0FE89F827FE8BAA94AA208F
:102E900019F064017101B5CF8091EF059091F005B3
:102EA0002091020730910307AC01475051092417C4
:102EB000350754F00B968217930734F080910D0775
:102EC000811102C00E94AB0D8091B80180FD56C0F7
:102ED0008091F205887390E053E0959587955A9517
:102EE000E1F78330910519F164F481309105A9F07F
:102EF000029709F043C08091ED059091EE0502978D
:102F000011C08530910541F1C4F00697B9F5809163
:102F1000ED059091EE05019624C08091ED0590910C
:102F2000EE0502969093EE058093ED0527C0809103
:102F3000ED059091EE05019605C08091ED0590910B
:102F4000EE0501979093EE058093ED058091EF05D6
:102F50009091F00501970EC08091ED059091EE05DE
:102F600001979093EE058093ED058091EF05909188
:102F7000F00501969093F0058093EF058091F1059F
:102F800018160CF040C04091F2052091FA063091DD
:102F9000FB06E091F806F091F9068091ED0590911D
:102FA000EE056091EF057091F005621B730B47FD14
:102FB0001FC020E046E952E18E1B9F0B0E943C0D92
:102FC0006091EF057091F0058091FA069091FB06F3
:102FD000681B790B8091ED059091EE05E091F80664
:102FE000F091F90620E04EE252E18E1B9F0B08C0E3
:102FF0008E1B9F0B05972B2D48EA51E18B0D911DE0
:103000000E94360D46C081508093F1058091730770
:1030100080FD34C06091EF057091F0058091FA0653
:103020009091FB06681B790B6C5F7F4F8091ED05DB
:103030009091EE052091F8063091F906821B930BD2
:1030400020E044E008960E94EE1D6091EF0570912B
:10305000F0058091FA069091FB06681B790B809130
:10306000ED059091EE05E091F806F091F90621E06A
:103070004EE252E18E1B9F0B0E94360D8091F105AE
:103080008A3B3CF481E08093BD011092B80110921C
:10309000BB018091EC05882309F41BC12D892F5FAA
:1030A0002D8B8091E90518160CF082C08091EB05FC
:1030B00081508093EB0581114DC080E58093EB0535
:1030C0000E94EC361091EA05E12FE077F0E044E051
:1030D000F595E7954A95E1F73197E730F105A0F5C9
:1030E000E858FF4F0C94A73788E201C084E1809331
:1030F000EB052AC02CE330E040E050E00E9410379E
:10310000812F837F92E69093EB05643120F4137056
:1031100061F0815007C0693240F01370123028F41A
:1031200088608F5F8093EA050FC08460FBCF909129
:10313000E80581E089278093E80506C084E680934E
:10314000EB051F781093EA058091EA05805F809374
:10315000EA052EC08091EA05982F9076903441F5CB
:103160004091E4055091E5059091E805911103C067
:1031700021E030E002C02FEF3FEF240F351F3093E6
:10318000E5052093E4059091B80190FD11C08C7085
:1031900090E0959587959595879501972091E605FF
:1031A0003091E705820F931F9093E7058093E60522
:1031B0008091E90518160CF066C08091EA058077C9
:1031C00090E024E0959587952A95E1F78330910565
:1031D0000CF5029721F48091B80180FF7AC08091AC
:1031E000E80527E0829F202D11246091E60570916B
:1031F000E7058091FA069091FB06681B790B809198
:10320000E4059091E505E091F806F091F9064EEE9F
:1032100055E134C0079721F48091B80180FF59C06F
:103220006091E6057091E7058091FA069091FB06A2
:10323000681B790B8091E4059091E505E091F80613
:10324000F091F90622E04EE551E18E1B9F0B0E94A2
:103250003C0D6091E6057091E7058091FA0690912A
:10326000FB06681B790B8091E4059091E505E091E0
:10327000F806F091F90620E04EE551E18E1B9F0B18
:103280000E94360D26C081508093E9058091730716
:1032900080FD19C06091E6057091E7058091FA06FE
:1032A0009091FB06681B790B8091E4059091E505F0
:1032B000E091F806F091F90621E04EE551E18E1B10
:1032C0009F0B0E94360D8091E9058A3B14F4109201
:1032D000EC058091B601882309F4CAC03D893111FB
:1032E000C7C089E08093BB01C3C0D10112966D9124
:1032F0007C91139784E0759567958A95E1F72D91F8
:103300003C91EE89FF898081811103C080E090E0CB
:1033100002C089E090E0820F931F14E09595879595
:103320001A95E1F70E948E0EAE89BF899C9181119A
:1033300010C0F10120813181911103C08FEF9FEF07
:1033400002C081E090E0820F931FD1018D939C9386
:103350007CC981E08927EE89FF89808376C98076E0
:10336000803409F4D5CA81E028A139A182169306D8
:103370000CF080E0AAA1BBA18C9388A199A1881927
:10338000990903973CF0BFEF8B1A9B0AF2019182D7
:1033900080820DC0C40128A139A1821B930B039721
:1033A00034F031E0831A9108D2018D929C928EA163
:1033B0009FA18619970903973CF0BFEF6B1A7B0A10
:1033C000F20173826282A4CAC3012EA13FA1821BB3
:1033D000930B03970CF49CCA31E0631A7108D20175
:1033E00013967C926E92129793CAE88DF98D31975D
:1033F0002081222309F497CAE4EAF6E02081211112
:1034000031C0A4E0880F991FAA95E1F7FC01E856A6
:10341000F94F21E024871786D20112962D913C9115
:1034200013972C5F3F4F338322832D913C912A5F6A
:103430003F4FB5E0220F331FBA95E1F73583248360
:10344000EAA1FBA12081211103C024EC3FEF02C0BF
:103450002CE330E0FC01E856F94F3187208784E601
:10346000868761CA019670968630910539F65BCAE7
:10347000AA960FB6F894DEBF0FBECDBFDF91CF91F5
:103480001F910F91FF90EF90DF90CF90BF90AF9082
:103490009F908F907F906F905F904F903F902F9074
:1034A0000895EF92FF920F931F93CF93DF931F9294
:1034B000CDB7DEB77C01FC0100811181C8016983B1
:1034C0000E94FA366981681719F0C8010E94023714
:1034D000C7010F90DF91CF911F910F91FF90EF9057
:1034E00008950F931F93CF93DF9300D0CDB7DEB72E
:1034F0008B01FB0160819A838983CE0101960E9432
:10350000511AC8010F900F90DF91CF911F910F9129
:1035100008950F931F93CF93DF9300D0CDB7DEB7FD
:10352000182F882349F020E04AE454E161E170E07B
:103530008FE290E00E94360D9091B8019E3168F4C0
:103540009F5F9093B80110927E018CE00E94E31D72
:10355000882319F084E68093B80120E04EEE53E111
:103560006DE270E08CE290E00E94360D60E387E24D
:103570000E9481108CE00E94E31D882309F44AC058
:1035800080917E01882389F1E7ECF5E080E090E00E
:1035900000E010E021E030E04081411109C0A901C4
:1035A000082E02C0440F551F0A94E2F7040F151F9E
:1035B000019633968930910579F70E94871E1A8308
:1035C0000983CE0101960E949D1E8091B7018F5FF5
:1035D0008093B7018983BE016F5F7F4F84E691E0DE
:1035E0000E94711A1092BB0115C0112381F0109234
:1035F000BA011092B6011092B90183E080931B07C3
:103600008091B7018F5F8093B70186E001C087E0AA
:103610008093BB010F900F90DF91CF911F910F917D
:103620000895DF92EF92FF920F931F93CF93DF9352
:103630007C01D22E8B01040F111DEB0177FF0EC010
:10364000C0E0D0E00BC0C417D5077CF42D2DAE012F
:10365000B70180E797E00E946A0D2196A801013426
:1036600011058CF340E450E0EECFDF91CF911F9134
:103670000F91FF90EF90DF9008954F925F926F92BD
:103680007F928F929F92AF92BF92CF92DF92EF92F2
:10369000FF920F931F93CF93DF9300D000D0CDB74D
:1036A000DEB7DC014115510509F4F1C1FA011491AD
:1036B0003196F4914E5F5F4FE12EF12C222309F1F8
:1036C0008F2F869586958695C82ED12C81E090E027
:1036D0003F2F377011F480E090E08C0D9D1DE89E27
:1036E0006001E99ED00CF89ED00C1124033011F437
:1036F000CC0CDD1C2C9DC0012D9D900D1124480F7C
:10370000591F0F3F09F402E0CD018E0D9F1D1816C1
:1037100019060CF0BCC1A038B1050CF0B8C19B0172
:103720002F0F311D121613060CF0B1C16034710554
:103730000CF0ADC14115510509F4A9C19B0177FFFA
:1037400004C022273327261B370B322F37706B011B
:1037500077FF03C027E0C20ED11C23E0D594C794A5
:103760002A95E1F72C2D77FF07C0332329F02FEF9F
:103770002C0D68E0631B362FB7FF05C0CC24DD2479
:10378000CA1ADB0A02C0C12CD12C8038910524F062
:1037900080E8982E9A1A01C0912E9C18622F022E52
:1037A000000C770B2F3F1CF4B62EB09401C0B12C47
:1037B00091E08F2F877009F490E0F695F695F695D5
:1037C0009F0F690F711D6930710514F098E0921B0D
:1037D000792F7B192B0DCD0160E82603800D911DFB
:1037E00011248C0D9D1DD601B19EA00DB11D11247B
:1037F0004A0F5B1FE1E0F0E06F01032E02C0CC0C2A
:10380000DD1C0A94E2F7033009F4FDC0A0F4013096
:1038100009F4AFC0023009F03AC16FEF6C9D80012E
:103820006D9D100D1124009510951C830B837C80D9
:10383000672E620E28C00A3F31F00B3F09F027C106
:10384000B72EB20E82C0B72EB20E4DC0FA01E60FEF
:10385000F71FE491EC9D5001ED9DB00C1124BA824C
:10386000A98227FD04C0EC91E023AE2AAC9231116D
:1038700013C06F5F7F4F1196691540F32F5F4E0D98
:103880005F1D80589F4F261509F401C1DC01AA5322
:10389000BE4F60E070E0F0CF27305CF7FD01E058EC
:1038A000FF4FB080B720AA80BA28B082E2CFFA01D9
:1038B000E60FF71FE491EC9D8001ED9D100D1124A2
:1038C0001A83098327FD03C0EC910E2B0C93311151
:1038D00013C06F5F7F4F1196691548F32F5F4E0D30
:1038E0005F1D80589F4F2B1509F4D1C0DC01AA53EE
:1038F000BE4F60E070E0F0CF27305CF78D010058DC
:103900001F4FF801A080FA81AF2AF801A082E1CF11
:10391000FA01E00FF11FE491EC9DB001ED9D700DF7
:1039200011247A83698327FD04C060957C91672305
:103930006C93311113C00F5F1F4F1196091540F39F
:103940002F5F4E0D5F1D80589F4F2B1509F49FC0B0
:10395000DC01AA53BE4F00E010E0F0CF27305CF747
:10396000FD01E058FF4F6A81609570816723608395
:10397000E2CF772E720EBD01641B750B271509F47B
:1039800086C0FC01EA53FE4F5F0100E010E009151C
:10399000A0F5F801E60FF71FE40FF51FE491EC9D89
:1039A000D001ED9DB00D1124A095B095BC83AB83E3
:1039B000FA01E00FF11FE491EC9D2001ED9D500C08
:1039C00011245A82498227FD05C0F501B081AB233D
:1039D0004A2A4082332359F027304CF4F501E0584D
:1039E000FF4FB081AC81AB23BA81AB2BA0830F5FBB
:1039F0001F4FFFEFAF1ABF0ACACF2F5F4E0D5F1DDB
:103A000080589F4FBBCF692C712CFA01EA0FFB1F26
:103A1000DC01AA53BE4F8C010A5B1D4F80E890E089
:103A20005C01A618B708E618F708EE0CFF1C972FE4
:103A3000792C872ECF93DF93E8016591459133234D
:103A400059F06C9DB0014C9DA00127302CF4D8801A
:103A50005095D522D72AD99222233AF0DC9040956E
:103A6000D422D62ADD920C94361D11969A9429F709
:103A70009A9551F0972C23951124EE0DF11DAA0D66
:103A8000B11DCA0DD11DD9CFDF91CF9111240F9057
:103A90000F900F900F90DF91CF911F910F91FF909A
:103AA000EF90DF90CF90BF90AF909F908F907F90DE
:103AB0006F905F904F9008954F925F926F927F92B8
:103AC0008F929F92AF92BF92CF92DF92EF92FF922E
:103AD0000F931F93CF93DF93EC017B016A01C90120
:103AE000A901461B570B57FF03C05195419551093A
:103AF00096012C1B3D0B37FF03C0319521953109F1
:103B000011E02417350714F010E00AC03C2D2D2DCC
:103B10006C01832F922F3C2F2D2FE701E32EF22EE5
:103B2000CC16DD0654F43E2D2F2D7C01832F922FD1
:103B30003C2F2D2FE601C32ED22E26014C1A5D0AF2
:103B40004C018E189F0897FE03C0919481949108B0
:103B5000520157FE03C02FEFA21AB20AB594A794E0
:103B6000E816F90614F08FEF01C081E0682E880F87
:103B70007708CC16DD06B4F0202F112319F0AE0122
:103B8000B70102C0A701BE0180E797E00E946A0D5D
:103B9000A818B908B7FE04C0E60CF71CA40CB51CA5
:103BA0002196E7CFDF91CF911F910F91FF90EF907A
:103BB000DF90CF90BF90AF909F908F907F906F904D
:103BC0005F904F90089520917607282329F49091D3
:103BD0007507982381E009F480E008952F923F92C1
:103BE0004F925F926F927F928F929F92AF92BF920D
:103BF000CF92DF92EF92FF920F931F93CF93DF93B9
:103C000000D000D0CDB7DEB75C014B01322E842F3F
:103C100090E09C838B83440F4F5F681B790BC50139
:103C20000E94111B01E010E0EB81FC810E1B1F0BB9
:103C3000CF019195819591093C01660C771CE12C8F
:103C4000F12CCC24C394D12C8B819C81E816F906ED
:103C50000CF046C017FD0AC08B819C8101979C83A4
:103C60008B8392E0690E711C060D171DEFEFEE1AA3
:103C7000FE0AF2E0CF0ED11C0C0D1D1D2B80220C74
:103C80002394232D422D24018B819C81481A590AAB
:103C9000B201C7018A0D9B1D0E94111BF401EE1990
:103CA000FF09FA83E983232D4C2DBF018B819C8171
:103CB0008A0D9B1D0E94111B232D422DB201C501AF
:103CC0008E199F090E94111B232D4C2D69817A8129
:103CD000C501EB81FC818E1B9F0B0E94111BB4CF91
:103CE0000F900F900F900F90DF91CF911F910F9138
:103CF000FF90EF90DF90CF90BF90AF909F908F900C
:103D00007F906F905F904F903F902F900895CF934A
:103D1000DF9300D0CDB7DEB76091C50181E691E0B9
:103D20009A838983CE0101960E94511A85EC91E015
:103D30000F900F90DF91CF9108950F931F93CF9322
:103D4000DF9300D0CDB7DEB78C01FC01608182E645
:103D500091E09A838983CE0101960E94511AF8015D
:103D6000618183E691E09A838983CE0101960E9466
:103D7000511AC8010F900F90DF91CF911F910F91B1
:103D800008952F923F925F926F927F928F929F92AF
:103D9000AF92BF92CF92DF92EF92FF920F931F9359
:103DA000CF93DF9300D000D000D0CDB7DEB78C0129
:103DB0007B01522E242F30E03E832D8381E090E062
:103DC0005C01A21AB30AC901919581959109FC0180
:103DD000EE0FFF1FFA83E983A901460F571F252D18
:103DE000B80180E797E00E946A0DA7012D813E810E
:103DF000421B530B252DB80180E797E00E946A0D06
:103E00006D817E81600F711F252DA70180E797E0EE
:103E10000E946A0DB8018D819E81681B790B252D4A
:103E2000A70180E797E00E946A0DC12CD12CE1E048
:103E3000F0E0FC83EB832D813E81C216D3060CF0AB
:103E400070C0B7FC0DC02D813E81215031093E83E9
:103E50002D8389819A8102969A838983A80EB91E3F
:103E60009FEFC91AD90AEB81FC813296FC83EB8360
:103E7000AE0EBF1E3601600E711E252D8D809E80F8
:103E80008E0C9F1CA401B30180E797E00E946A0D8D
:103E900018012C183D08252DA401B10180E797E0F9
:103EA0000E946A0D252D47018D819E81881A990AED
:103EB000A401B30180E797E00E946A0D252DA401BB
:103EC000B10180E797E00E946A0D46018E0C9F1CAD
:103ED000252DA4016D807E80600E711EB30180E7E8
:103EE00097E00E946A0D252DA4011801ED81FE8145
:103EF0002E1A3F0AB10180E797E00E946A0D470140
:103F00008C189D08252DA401B30180E797E00E943D
:103F10006A0D252DA401B10180E797E00E946A0D8A
:103F20008ACF26960FB6F894DEBF0FBECDBFDF91C5
:103F3000CF911F910F91FF90EF90DF90CF90BF90A6
:103F4000AF909F908F907F906F905F903F902F9059
:103F500008958091C6018EBDE7ECF1E081910DB42A
:103F600007FEFDCF8EBD85E0E63CF807B9F70DB43E
:103F700007FEFDCF089580E0E6ECF1E081118FEFC0
:103F8000002481938193819381930394D1F70895C1
:103F9000FC018091C401811103C08FEF9FEF089550
:103FA0009FB7F89482E08093E9002091F20030E01E
:103FB0001216130614F421E030E02115310559F0F2
:103FC000289884E68093C3018091F10080838091DA
:103FD000F200882319F09FBFC90108958BE68093F2
:103FE000E800F9CF2FB7F89483E08093E90090912F
:103FF000E800892F807295FF04C09091F20080E460
:10400000891B2FBF08958091860781110DC082E022
:104010008093820784E08093830710928507109233
:10402000840781E08093860782E897E00895CF9324
:10403000DF931F92CDB7DEB76983DC01ED91FC9170
:104040000280F381E02D41E050E0BE016F5F7F4FC1
:1040500009950F90DF91CF91089583E08093E90057
:104060008091F200882319F08AE38093E800089594
:10407000FC018485958597FD0BC09FB7F89482E07D
:104080008093E9008091F2009FBF90E0019608952F
:104090009FB7F89482E08093E9008091F2009FBF7F
:1040A00090E008958F929F92AF92BF92CF92DF924D
:1040B000EF92FF920F931F93CF93DF935C016B01FD
:1040C0007A0180911201882309F45BC08091C401B8
:1040D000882309F456C08091E40780FF05C08091D1
:1040E000E00082608093E000E70110E00AEF83E0E7
:1040F000882E9AE3992E2097D9F10E94F21F811100
:104100000AC0015009F43DC061E070E080E090E039
:104110000E94B20CF0CF282F30E0C217D3070CF466
:104120008C2F4FB7F8948092E9009091E80095FFAA
:104130001DC0282F30E0C21BD30BF601982F9150E1
:1041400020F081918093F100FACFC20ED31E11238B
:1041500019F09092E80009C08091E80085FD06C042
:104160009092E80011E0209709F010E04FBFC3CF14
:104170001111C3CF5D9884E68093E5071E141F04D8
:1041800044F081E090E0F5019383828380E090E049
:1041900001C0C701DF91CF911F910F91FF90EF9068
:1041A000DF90CF90BF90AF909F908F9008950E9426
:1041B000F21F90E00895CF93DF931F92CDB7DEB743
:1041C000FC018485958597FD05C02FEF3FEF35876E
:1041D00024870BC0CE0101960E94C81F019719F4D5
:1041E000898190E002C08FEF9FEF0F90DF91CF9118
:1041F00008950F931F93CF93DF931F92CDB7DEB730
:104200008C01FC018485958597FF0EC0CE01019637
:104210000E94C81F019719F4298130E002C02FEFD6
:104220003FEFF80135872487F801848595850F9045
:10423000DF91CF911F910F910895DF92EF92FF923E
:104240000F931F93CF93DF93D82E8A017B01E40E47
:10425000F51EEB01CE15DF0571F0D7FE03C0FE01A0
:10426000849101C088810E94182421968111F2CF87
:104270008FEF9FEF01C0C801DF91CF911F910F9188
:10428000FF90EF90DF9008950F931F93CF93DF93EC
:104290001F92CDB7DEB782E0898342E450E068E741
:1042A00077E180E80E941D210E940320DC01129624
:1042B0000D911C9113970115110569F0D801ED912D
:1042C000FC910280F381E02DBE016F5F7F4FC8013A
:1042D000099597FF07C089810F90DF91CF911F91BA
:1042E0000F910895F80100851185E5CF1F920F9277
:1042F0000FB60F9211248F939F938091E1009091BC
:10430000E100937F9093E10083FF0FC01092E900DA
:1043100091E09093EB001092EC0092E39093ED000B
:104320001092C40198E09093F00082FF20C093E0C7
:104330009093E9009091F200992319F09AE39093F9
:10434000E8009091E507992339F09091E5079150A5
:104350009093E507992389F19091C301992339F04E
:104360009091C30191509093C301992341F184FF2F
:1043700010C08091E2008E7E81608093E200809187
:10438000E1008F7E8093E1008091E4078E7E806162
:1043900011C080FF16C08091E2008E7E8061809304
:1043A000E2008091E1008E7E8093E1008091E4073D
:1043B0008E7E81608093E40704C05D9ACDCF289AF9
:1043C000D6CF9F918F910F900FBE0F901F90189591
:1043D0001F920F920FB60F921124CF92DF92EF929D
:1043E000FF920F931F932F933F934F935F936F937E
:1043F0007F938F939F93AF93BF93EF93FF93CF934D
:10440000DF93CDB7DEB76C97DEBFCDBF1092E9006A
:104410008091E80083FFEDC168E0CE0145960E94DF
:10442000462482EF8093E8008D8987FF05C0909134
:10443000E80090FFFCCF03C09EEF9093E800982F18
:10444000907609F0C6C09E892F89188D91110CC0F5
:10445000803829F48091E3078093F10002C0109224
:10446000F1001092F10048C1422F50E0512B9130E1
:1044700051F4811141C14130510509F03DC1809194
:10448000E3078D7F0BC0933061F4811135C141305A
:10449000510509F031C18091E30782608093E30701
:1044A0002BC1953041F48091E80080FFFCCF20685B
:1044B0002093E30021C1963009F05FC0EB8CFC8CA7
:1044C0001092E9001092E1071092E007123091F586
:1044D0001092DF071092DE070E94442199E0BE018E
:1044E0006F5F7F4FDB01E92F1D92EA95E9F7998312
:1044F0001A8391E09E8390EA98879AEF998720919A
:10450000E0073091E107275F3F4F3C832B838D838A
:104510001092E9001092E1071092E007F092DF0795
:10452000E092DE0749E050E080E00E941D210E94F9
:104530004421E2C0F092DF07E092DE070E940320F0
:10454000DC011296ED90FC901397E114F10409F44C
:10455000C0C0D701ED91FC910480F581E02DBE0132
:104560006B5E7F4FC7010995009719F00CF0C4C02E
:10457000C7C0F701E084F184E8CF973009F4C0C0E8
:10458000983021F481E08093F100B6C0993009F0B1
:10459000B3C0837009F0B4C0E4E7F1E081E021E04A
:1045A00036E39081992361F08093E9002093EB003A
:1045B00091919093EC003093ED008F5F873089F7F5
:1045C0008EE78093EA001092EA008F898093C401FD
:1045D00093C08B8D9C8D1092E9001092E107109290
:1045E000E0079093DF078093DE07898D811156C025
:1045F0008E899D89913A59F4813209F081C047E052
:1046000050E06BE071E080E00E941D2175C09132A6
:1046100009F076C0833289F4888D90E0982F88273E
:104620002F89822BA0E0B0E08093070190930801CE
:10463000A0930901B0930A015FC0803269F48091B0
:10464000E80082FFFCCF67E08BE091E00E94462407
:104650008BEF8093E80006C0823209F04DC08F894D
:10466000809312018091E207882319F0EEEFFAE0BF
:1046700002C0E0E0F8E080910B0190910C01A09164
:104680000D01B0910E01803B9440A105B10509F0E8
:104690007BC08091120180FF93C076C00E940320EE
:1046A000DC0112960D911C9113970115110541F132
:1046B000D801ED91FC910190F081E02DBE016B5E7F
:1046C0007F4FC8010995811117C0F8010085118538
:1046D000ECCF113009F44EC0133091F48F89882348
:1046E00009F445C0823081F440E860E18CED97E147
:1046F0000E946136882321F08EEF8093E80079C014
:1047000081E28093EB0075C0813029F440E86BE0D2
:1047100080ED97E1EDCF833099F70E940320DC0113
:104720001296ED90FC9013978E010F5F1F4F68015A
:10473000E114F10479F0D701ED91FC910680F78145
:10474000E02DB801C7010995080F111DF701E0849C
:10475000F184EECFD8011C92F60101900020E9F718
:104760003197BF016C197D0940E0C601C1CF6AEBEA
:1047700077E102C06EEB77E16115710509F2FB018B
:10478000449150E080E840CF0FB6F894A89580910E
:104790006000886180936000109260000FBEA89551
:1047A000EE3F2AE0F20739F08091FE0A9091FF0A6D
:1047B00091838083A1CF1092FF0A1092FE0A9CCFB2
:1047C000EE3F8AE0F80731F0808191819093FF0AF3
:1047D0008093FE0A87E797E7918380839BE088E1D7
:1047E0000FB6F894A895809360000FBE9093600078
:1047F00083CF6C960FB6F894DEBF0FBECDBFDF91AE
:10480000CF91FF91EF91BF91AF919F918F917F9148
:104810006F915F914F913F912F911F910F91FF9059
:10482000EF90DF90CF900F900FBE0F901F901895D4
:104830004091E0075091E1072091DE073091DF07BA
:1048400042175307B4F49091E8009570E1F390910A
:10485000E80092FD19C08093F1008091E0079091EB
:10486000E10701968F739927892B19F48EEF8093B6
:10487000E8008091E0079091E10701969093E107AD
:104880008093E00781E0089580E00895615030F062
:104890002091F100FC0120830196F8CF289884E64E
:1048A0008093C3010895CF93DF93CDB7DEB7A4976C
:1048B0000FB6F894DEBF0FBECDBF789484B582608A
:1048C00084BD84B5816084BD85B5826085BD85B5B4
:1048D000816085BD80916E00816080936E00109232
:1048E00081008091810082608093810080918100AD
:1048F000816080938100809180008160809380003E
:1049000080919100826080939100809191008160FC
:1049100080939100809190008160809390008091BD
:10492000C10084608093C1008091C1008260809347
:10493000C1008091C10081608093C1008091C3005B
:1049400081608093C3008091C00082608093C0002A
:104950008091C20081608093C20080917A0084605F
:1049600080937A0080917A00826080937A008091AF
:104970007A00816080937A0080917A0080688093C9
:104980007A001092C4011092E3071092E40780911C
:10499000D70081608093D70080EA8093D80089B5E2
:1049A000806189BD89B5826089BD09B400FEFDCFF3
:1049B00061E070E080E090E00E94B20C8091D8004D
:1049C0008F7C80618093D8008091E000807F80930D
:1049D000E0008091E1008E7E8093E1008DE0809385
:1049E000E200559A209AEEEFFFE7859194918B3F74
:1049F0009C4D19F481E08093E20781EC80937C0068
:104A000085B1806F85B9249884B1866E84B95E9A29
:104A10005F988AB1806D8AB9769A6E9881B3806FFB
:104A200081BB899880B38D7080BB80E58CBD81E0AF
:104A30008DBD85E090E00E94480D5F9A85E090E092
:104A40000E94480D5E985C98E9E3F8E08DE08E0FD7
:104A500094919EBD00000DB407FEFDCF31968E13DC
:104A6000F7CF5C9A81E88093640081E080936500D1
:104A70002E980EEE1FEF0E944D0D86FF03C02E9A5A
:104A80002F9A2DC00C3F3FEF130719F42E9A2F9841
:104A900005C00831110511F42F9A2D980E94BB1FF3
:104AA00020E046E458E0B80184E190E00E94360D31
:104AB0000E94A91F8BE190E00E94480D003F4FEF3C
:104AC000140721F48AEF90E00E94480D0F5F1F4FFA
:104AD0000931110581F68CEB92E00E94480D2D9A68
:104AE00080E180937707809164008E7F80936400DB
:104AF00080917A00806480937A0080917A0086FDAC
:104B0000FCCF00917800109179000E948D0C20E07C
:104B100030E0980111270027600F711F821F931F3B
:104B2000611571058105910511F00E94F1368091A2
:104B3000640081608093640080E691E00E94FA3610
:104B40008E3CC9F08EEC8983BE016F5F7F4F80E69B
:104B500091E00E94711A0E94871E1A821982CE016A
:104B600001960E949D1E1982BE016F5F7F4F84E6F1
:104B700091E00E94711AB0E12B2E412CBE016F5FB3
:104B80007F4F7A8B698BCE0109969C8B8B8B2FB7CD
:104B9000F89480917A0190917B01A0917C01B09171
:104BA0007D012FBF40917C0750917D0760917E076A
:104BB00070917F0720918007222349F02091780788
:104BC000821B80938107109280070C9421348417F4
:104BD0009507A607B70788F4481B423010F40C94D9
:104BE000213483B7817F83BF83B7816083BF88957A
:104BF00083B78E7F83BF0C94213421E020938007FC
:104C00008093780790937907A0937A07B0937B07F6
:104C100020917707820F911DA11DB11D80937C0704
:104C200090937D07A0937E07B0937F0780917307D1
:104C30009091740701969093740780937307809105
:104C40007507809376070E944D0D809375070E942B
:104C5000BB1FE091BB018E2F90E08D30910510F0CD
:104C60000C941F34FC01EA5AFF4F0C94A7370E94A2
:104C7000B7108CE00E94E31D882311F40C941F34BC
:104C800081E00C941D340E94B7108CE00E94E31D5B
:104C9000811110927E0183E00C941D340E94B710A4
:104CA00020E048EF58E061E170E084E390E00E948A
:104CB000420D65E180E30E9481108CE00E94E31DBB
:104CC000882311F40C941F3480917E018093C501D8
:104CD0008CE01DC00E94B71020E04BE459E061E178
:104CE00070E084E390E00E94420D65E180E30E9461
:104CF00081108CE00E94E31D882311F40C941F3472
:104D000080917E01811102C082E001C08BE080931E
:104D1000BB0110927E010C941F3410920107109277
:104D200000071092030710920207109205071092D5
:104D300004071092070710920607109209071092B5
:104D4000080710920B0710920A0781E080930C0766
:104D5000109216071092170710920E0710920F0765
:104D600010921007109211071092120780931307E8
:104D70001092140710921807109215078CE3809375
:104D80001C07109235071092450781E00E94730FAF
:104D9000E091BA01F0E0EE0FFF1FE95EFE4F0081E7
:104DA0001181EDE4F7E08FEF9FEF23E191838083A2
:104DB0009383828324833596A7E0E037FA07B1F71F
:104DC0006091B80170E080E090E0611571058105A7
:104DD000910511F00E94F136F80184918093BC0195
:104DE00091E090937F01E82FE295EF708E2F90E095
:104DF000FC013197EE30F10528F5ED59FF4F0C9489
:104E0000A73788E020C080E117C088E103C0109276
:104E10007F0180E28093000180E117C080E105C03E
:104E200010927F0180E208C088E08093000180E258
:104E30000CC010927F0188E18093000188E005C0DA
:104E400010927F0188E1809300018093030180919B
:104E50000001A09003018A9D5001112463E0B594E4
:104E6000A7946A95E1F7FFEFAF1ABF0AA00EB11E33
:104E7000F501849141E001E076E0672EE7E05E2EE7
:104E8000F8E08F2E912C8F3F09F4FDC1F82FFF71B0
:104E90003F2E77247394740EF501E40FF11D1491E5
:104EA000212F2295269527701F71E82FE07EE0368E
:104EB00009F48AC0D0F4E03231F1E03409F453C08F
:104EC000E111DAC1110F1092490710934A07330C10
:104ED00010924B0730924C0710920407109305076D
:104EE0001092060730920707C7C1E03A09F4B6C12D
:104EF000E03C09F465C1E03809F0BEC1E8E8F1E042
:104F000080E090E0E2C0EDE4F7E080E090E0208116
:104F100031812F3F3F4F09F565E0689F9001699F00
:104F2000300D1124D901A35BB84F70E1179FF00138
:104F300011241196FC93EE9380E1389EB001112468
:104F400013967C936E9312974E5FF501E70DF11D5A
:104F5000E4911496EC93742E8FC1019635968730A8
:104F60009105A9F689C1222329F08091C5018823E2
:104F700009F482C1EFE6F6E020E030E080818111A3
:104F80001CC090E1399EB0011124529EC001539E75
:104F9000900D1124DC01A759B94F20E1129FF001B7
:104FA00011241196FC93EE936C5F7F4F13967C93C4
:104FB0006E93129716960C935FC12F5F3F4F3796F3
:104FC00026303105D9F658C12230E1F198F4222378
:104FD00059F1213009F050C1812F90E09A8F898FCB
:104FE000A32DB0E0BC8FAB8F41E0698D7A8D8B8DA6
:104FF0009C8D3AC0243009F44FC0C8F1263009F026
:105000003BC190E1199FF0011124F093EE05E0936C
:10501000ED05A0E13A9EB00111247093F005609374
:10502000EF050093F40528C1412F50E05E8B4D8BB6
:10503000632D70E0788F6F8B40E06D897E898F895A
:10504000988D12C08091C501882309F415C1E12F04
:10505000F0E0FE8FED8F232D30E038A32F8F40E05E
:105060006D8D7E8D8F8D98A10E94FA0E05C130E165
:10507000139FF0011124F093F605E093F50540E14C
:10508000349EB00111247093F8056093F7050093E6
:10509000FC050093F905F0C050E1159FF0011124C3
:1050A000F093E505E093E40580E1389EB00111241A
:1050B0007093E7056093E6050093EC05DDC001966B
:1050C00039968630910509F4D7C0308132FDF7CF8B
:1050D000C22ED12CBFEFCB1ADB0A54E0CC0CDD1C66
:1050E0005A95E1F7E9E0E89F9001E99F300D11241E
:1050F000A90140585E4F7A0150E1159FC00111246B
:10510000D7018D939C93B0E13B9EC0011124F70120
:105110009383828361E0630D812F0E948E0E88232A
:10512000B9F0E5E0D7011896EC9318971596DC9244
:10513000CE92149717969C928E92169712968D91F6
:105140009C911397089613969C938E93129794C0F4
:10515000632D8FEF810F0E948E0E882371F0E4E0A3
:10516000D7011896EC93189715969C928E921497E7
:105170001796DC92CE9216977FC0632D81E0810F47
:105180000E948E0E882369F0D70118966C921897AA
:1051900015969C928E9214971796DC92CE92169743
:1051A0004EC06FEF630D812F0E948E0E882309F48D
:1051B00063C0F7015086D582C482978286825CC024
:1051C000222329F08091C501882309F455C0E2E02B
:1051D000F6E020E030E08081811138C0F0E13F9EB0
:1051E000C0011124629EA001639E500D11249A01FA
:1051F00023503A4F790140E1149F90011124D701C7
:1052000011963C932E93049613969C938E9312972B
:1052100015960C93632D8FEF810F0E948E0E8823BD
:1052200019F0F701048328C0632D81E0810F0E94EB
:105230008E0E882309F1D70114961C9214978D9134
:105240009C91119708968D939C9316C02F5F3F4FAA
:1052500036962630310509F0BECF0EC0E12FF0E0C2
:10526000FAA3E9A3232D30E03CA32BA369A17AA1E3
:105270008BA19CA10E942B0F41E0470DF501E70D8A
:10528000F11D849100CE8091490790914A07909337
:1052900005078093040780914B0790914C079093EA
:1052A0000707809306078091B901882341F190E0B8
:1052B000019725E0289FF001299FF00D1124E35B61
:1052C000F84F2081318105E0220F331F0A95E1F765
:1052D00030930507209304078281938145E0880F6E
:1052E000991F4A95E1F7909307078093060730933B
:1052F0004A072093490790934C0780934B072091CE
:10530000BA01E6ECF5E080E090E03081321313C0A2
:10531000FC01EE0FFF1F8E0F9F1FFC01EA53FA4F97
:105320008181882321F081E08093B60109C080E06B
:105330000E94730F05C0019633968A30910529F7B4
:105340001092B8010C94A8338091B8018F5F8093BC
:10535000B80180911A07882309F48EC110920F07B3
:105360000E944D0D84FF03C08CEE9FEF06C00E948B
:105370004D0D87FF06C084E190E09093FF06809377
:10538000FE0680911507811197C00E944D0D85FF83
:1053900049C080E38093010181E080930E078091F2
:1053A0001407811189C080911007811130C080914C
:1053B000120781112CC080911107811128C06091C2
:1053C000020770910307685F7F4FA4E075956795AA
:1053D000AA95E1F780910007909101070197B4E049
:1053E00095958795BA95E1F70E948E0E811109C0B7
:1053F000809104079091050780979093050780930B
:10540000040781E080930F078FEF9FEF51C08091D9
:10541000080790910907813E3FEF93070CF44CC0B9
:10542000029746C00E944D0D86FF46C010920E079F
:1054300080911407811140C080911007811130C004
:105440008091120781112CC080911107811128C011
:105450006091020770910307685F7F4FE4E07595E4
:105460006795EA95E1F780910007909101070C9606
:10547000F4E095958795FA95E1F70E948E0E8111DB
:1054800009C08091040790910507809690930507C5
:105490008093040781E080930F0781E090E008C0CB
:1054A0008091080790910907803291052CF40296AB
:1054B000909309078093080788E00E94E31D8823E2
:1054C00009F456C080913507811104C080911807F6
:1054D000882359F08091450781114AC080911807AF
:1054E000811146C081E090E002C080E090E064E07D
:1054F000880F991F6A95E1F7FC01E050F94F21E010
:1055000025AB3091C501232730910601321B30AF06
:1055100020910207309103072C5F3F4F34A723A748
:105520002091040730910507A901405C5F4F60910D
:105530000E07611103C020E430E002C020E030E03B
:10554000FC01E050F94F240F351F36A725A7611144
:1055500003C02CE330E002C024EC3FEFFC01E0503C
:10556000F94F32AB21AB83E28093180784E687AB17
:105570000E944D0D83FD02C00C942B3480911807BE
:105580008A3110F40C942B3481E0809314070E942C
:105590004D0D87FF06C00E944D0D84FF02C00C9484
:1055A0002F3484E00E94E31D882309F45AC020911F
:1055B0000A0730910B07809115072115310519F065
:1055C0002D3F3F4F41F490911007911104C09091ED
:1055D0001107992311F0882391F110920F0710926F
:1055E00013078823F1F00E944D0D84FF03C0109231
:1055F000150737C00E944D0D86FF06C080910E072B
:10560000882311F40C9443340E944D0D85FD02C093
:105610000C94373480910E0781110C9443340C9410
:1056200037340E944D0D86FF02C00C9443340E9413
:105630004D0D85FF02C00C9443340C94503480917E
:10564000120781110CC080911C07882351F081E062
:1056500080931207109210078093110702C01092D6
:1056600012070E944D0D82FD07C08091100788230C
:1056700019F081E08093130780911807882319F0AF
:1056800081508093180789E297E00E94201089E3F7
:1056900097E00E94201080910D078823C9F0809127
:1056A000730780FD06C090910C0781E089278093E5
:1056B0000C07809116078F5F813518F480931607C9
:1056C00007C01092160710920D0781E080930C0717
:1056D00080910F07811104C080911407882379F00D
:1056E000809173079091740787709927892B49F4EB
:1056F000809119078F5F80931907843010F0109202
:1057000019072091120780910A0790910B07211128
:1057100019C018161906B4F421E02093100710924E
:10572000110720911307211118C020911707222378
:10573000A1F0059690930B0780930A0721502093C0
:1057400017070BC097FF09C080911507811105C08D
:105750001092100781E08093110760910207709109
:1057600003077B0158E0E50EF11C24E0F594E79473
:105770002A95E1F7C0900007D090010786E0C80E97
:10578000D11C34E0D594C7943A95E1F7605F7F4F20
:1057900044E0759567954A95E1F78C2D0E948E0E31
:1057A000982E8091080790910907009104071091A5
:1057B0000507080F191F55E0159507955A95E1F74C
:1057C00001501109181619061CF080E090E002C083
:1057D0008EE090E0080F191F84E0159507958A95D3
:1057E000E1F760910207709103076E5F7F4F94E0CD
:1057F000759567959A95E1F7802F0E948E0E81111D
:1058000010C06091020770910307635F7F4F14E03F
:10581000759567951A95E1F7802F0E948E0E882E58
:1058200002C08824839480910A0790910B07A0906E
:105830000607B0900707A81AB90AB5E0B594A7946F
:10584000BA95E1F797FD03C080E090E002C081E1E6
:1058500090E0A80EB91EF4E0B594A794FA95E1F78C
:1058600080910007909101070296A4E09595879595
:10587000AA95E1F76A2D0E948E0E81110FC08091CA
:105880000007909101070A96E4E095958795EA95BF
:10589000E1F76A2D0E948E0EB82E02C0BB24B3948D
:1058A00080911507811138C020911A0780910A074D
:1058B00090910B07222329F01816190614F0911065
:1058C0003BC0813AAFEF9A0714F0039702C080EA19
:1058D0009FEF90930B0780930A078091120788230C
:1058E00059F110920B0710920A076091020170E0C3
:1058F00080917307909174070E947F37892B29F458
:1059000080911C07815080931C0780911C07811196
:1059100013C01092120710C08091000790910107E8
:10592000019724E0959587952A95E1F76E2D0E94C1
:105930008E0E882309F4D3C780911A07882399F122
:1059400080910A0790910B071816190664F1B1109F
:1059500002C0992041F18CE380931C0710920B0741
:1059600010920A0710920907109208071092110767
:1059700010921007109212071092150780910607D7
:105980009091070755E0959587955A95E1F70C9604
:1059900064E0959587956A95E1F7880F1092060760
:1059A0008093070727C080910807909109079C0101
:1059B00097FF04C022273327281B390B22303105DB
:1059C000ACF0209173073091740723703327232B99
:1059D00089F41816190614F4019703C0009751F0C2
:1059E0000196909309078093080704C01092090755
:1059F000109208076E2D8C2D0E948E0E81112CC0E6
:105A0000809100079091010744E0959587954A950C
:105A1000E1F76E2D0E948E0E882331F080910407ED
:105A200090910507089614C0809100079091010796
:105A30000B9634E0959587953A95E1F76E2D0E9487
:105A40008E0E882349F080910407909105070897EE
:105A5000909305078093040740911A0780910A07E5
:105A600090910B07442321F0B1100EC0009711F163
:105A70002091060730910707F901E81BF90BF09315
:105A80000707E093060716C0181619069CF48091C4
:105A9000020790910307089624E0959587952A952B
:105AA000E1F7880F109206078093070710920B0703
:105AB00010920A078091080790910907009709F44E
:105AC00055C081100BC02091040730910507820F4B
:105AD000931F909305078093040748C0442309F45B
